:020000040800F2
:1000000000000824B10B00081D0B0008210B00089C
:10001000250B0008290B00082D0B0008000000002C
:10002000000000000000000000000000310B00088C
:10003000350B000800000000390B00083D0B0008DC
:10004000010C0008010C0008010C0008010C00085C
:10005000010C0008010C0008010C0008010C00084C
:10006000010C0008010C0008010C0008010C00083C
:10007000010C0008010C0008010C0008010C00082C
:10008000010C0008010C0008010C0008010C00081C
:10009000010C0008010C0008010C0008010C00080C
:1000A000010C0008010C0008010C0008010C0008FC
:1000B000010C0008010C0008010C0008010C0008EC
:1000C000010C0008010C0008010C0008010C0008DC
:1000D000010C0008010C0008010C0008010C0008CC
:1000E000010C0008010C000800000000010C0008D1
:1000F000010C0008010C0008010C0008010C0008AC
:10010000010C0008010C0008010C0008010C00089B
:10011000010C0008010C0008010C0008010C00088B
:10012000010C0008010C0008010C0008010C00087B
:10013000010C0008010C0008010C0008010C00086B
:1001400000000000000000000000000000000000AF
:10015000010C0008010C0008010C0008010C00084B
:10016000010C0008010C0008010C0008010C00083B
:10017000010C0008010C0008010C0008010C00082B
:10018000010C0008010C0008010C0008010C00081B
:10019000010C0008010C0008010C0008010C00080B
:1001A000010C0008010C0008010C0008010C0008FB
:1001B000010C0008010C0008010C0008010C0008EB
:1001C000010C0008010C0008010C0008010C0008DB
:1001D000010C0008010C0008010C0008010C0008CB
:1001E000010C0008010C0008010C0008010C0008BB
:1001F000010C0008010C0008010C0008010C0008AB
:10020000010C0008010C0008010C0008010C00089A
:10021000010C0008010C0008010C0008010C00088A
:10022000010C0008010C0008010C0008000000008F
:10023000010C0008010C000800000000010C00087F
:10024000010C0008010C0008010C0008010C00085A
:10025000010C0008010C0008010C0008010C00084A
:10026000010C0008010C0008010C0008010C00083A
:10027000010C0008010C0008010C0008000000003F
:10028000010C0008010C0008010C0008000000002F
:0802900000000000010C000851
:1002980010B5054C237833B9044B13B10448AFF3B8
:1002A80000800123237010BD3804002400000000E2
:1002B800F0290008084B10B51BB108490848AFF3EE
:1002C80000800848036803B910BD074B002BFBD01A
:1002D800BDE81040184700BF000000003C0400249F
:1002E800F0290008380400240000000080F00040D5
:1002F80002E000BF81F0004142001FBF5FEA4103F6
:1003080092EA030F7FEA226C7FEA236C6AD04FEAF5
:100318001262D2EB1363C1BFD2184140484041403A
:10032800B8BF5B42192B88BF704710F0004F40F4EC
:10033800000020F07F4018BF404211F0004F41F408
:10034800000121F07F4118BF494292EA030F3FD0D4
:10035800A2F1010241FA03FC10EB0C00C3F12003E7
:1003680001FA03F100F0004302D5494260EB400076
:10037800B0F5000F13D3B0F1807F06D340084FEAE1
:10038800310102F10102FE2A51D2B1F1004F40EBD6
:10039800C25008BF20F0010040EA0300704749003E
:1003A80040EB000010F4000FA2F10102EDD1B0FA09
:1003B80080FCACF1080CB2EB0C0200FA0CF0AABFFE
:1003C80000EBC25052421843BCBFD040184370479C
:1003D80092F0000F81F4000106BF80F400000132A2
:1003E800013BB5E74FEA41037FEA226C18BF7FEA79
:1003F800236C21D092EA030F04D092F0000F08BFBB
:100408000846704790EA010F1CBF0020704712F0A1
:100418007F4F04D1400028BF40F00040704712F1E0
:1004280000723CBF00F50000704700F0004343F045
:10043800FE4040F4000070477FEA226216BF08467B
:100448007FEA23630146420206BF5FEA412390EA3E
:10045800010F40F4800070474FF0000304E000BF34
:1004680010F0004348BF40425FEA000C08BF7047E5
:1004780043F0964301464FF000001CE050EA0102A9
:1004880008BF70474FF000030AE000BF50EA0102BE
:1004980008BF704711F0004302D5404261EB4101AB
:1004A8005FEA010C02BF84460146002043F0B643D0
:1004B80008BFA3F18053A3F50003BCFA8CF2083AF5
:1004C800A3EBC25310DB01FA02FC634400FA02FCFE
:1004D800C2F12002BCF1004F20FA02F243EB020005
:1004E80008BF20F00100704702F1200201FA02FC67
:1004F800C2F1200250EA4C0021FA02F243EB02005A
:1005080008BF20EADC7070474FF0FF0C1CEAD0529D
:100518001EBF1CEAD15392EA0C0F93EA0C0F6FD05E
:100528001A4480EA010C400218BF5FEA41211ED03C
:100538004FF0006343EA501043EA5111A0FB013128
:100548000CF00040B1F5000F3EBF490041EAD371FD
:100558005B0040EA010062F17F02FD2A1DD8B3F179
:10056800004F40EBC25008BF20F00100704790F0E8
:10057800000F0CF0004C08BF49024CEA502040EA3A
:1005880051207F3AC2BFD2F1FF0340EAC250704700
:1005980040F400004FF00003013A5DDC12F1190F3E
:1005A800DCBF00F000407047C2F10002410021FAB0
:1005B80002F1C2F1200200FA02FC5FEA310040F1C8
:1005C800000053EA4C0308BF20EADC70704792F041
:1005D800000F00F0004C02BF400010F4000F013A79
:1005E800F9D040EA0C0093F0000F01F0004C02BF74
:1005F800490011F4000F013BF9D041EA0C018FE7E3
:100608000CEAD15392EA0C0F18BF93EA0C0F0AD0E8
:1006180030F0004C18BF31F0004CD8D180EA01000E
:1006280000F00040704790F0000F17BF90F0004FA7
:10063800084691F0000F91F0004F14D092EA0C0F89
:1006480001D142020FD193EA0C0F03D14B0218BF1C
:10065800084608D180EA010000F0004040F0FE4062
:1006680040F40000704740F0FE4040F440007047FE
:100678004FF0FF0C1CEAD0521EBF1CEAD15392EA7D
:100688000C0F93EA0C0F69D0A2EB030280EA010C6D
:1006980049024FEA402037D04FF0805343EA111106
:1006A80043EA10130CF000408B4238BF5B0042F164
:1006B8007D024FF4000C8B4224BF5B1A40EA0C0009
:1006C800B3EB510F24BFA3EB510340EA5C00B3EB3B
:1006D800910F24BFA3EB910340EA9C00B3EBD10F29
:1006E80024BFA3EBD10340EADC001B0118BF5FEA7B
:1006F8001C1CE0D1FD2A3FF650AF8B4240EBC250A4
:1007080008BF20F0010070470CF0004C4CEA502064
:100718007F32C2BFD2F1FF0340EAC250704740F4B3
:1007280000004FF00003013A37E792F0000F00F0A5
:10073800004C02BF400010F4000F013AF9D040EA23
:100748000C0093F0000F01F0004C02BF490011F4B7
:10075800000F013BF9D041EA0C0195E70CEAD153AF
:1007680092EA0C0F08D142027FF47DAF93EA0C0F96
:100778007FF470AF084676E793EA0C0F04D14B027A
:100788003FF44CAF08466EE730F0004C18BF31F02C
:10079800004CCAD130F000427FF45CAF31F0004326
:1007A8007FF43CAF5FE700BF42000ED2B2F1FE4FCC
:1007B8000BD34FF09E03B3EB126209D44FEA002328
:1007C80043F0004323FA02F070474FF000007047EF
:1007D80012F1610F01D1420202D14FF0FF30704790
:1007E8004FF00000704700BF30B589B00024039473
:1007F80004940594069407941B4BD3F8E02042F028
:100808001002C3F8E020D3F8E02002F010020092B2
:10081800009AD3F8E02042F00402C3F8E020D3F8AD
:10082800E02002F004020192019AD3F8E02042F09D
:100838008002C3F8E020D3F8E03003F0800302938D
:10084800029B0A4D22460821284600F0F5FB0823A2
:100858000393012304930594069403A9284600F002
:10086800F3FA09B030BD00BF004402580010025826
:10087800244B5B6913F4003F13D1BFF34F8FBFF3D1
:100888006F8F204B0022C3F85022BFF34F8FBFF366
:100898006F8F5A6942F400325A61BFF34F8FBFF32A
:1008A8006F8F184B5B6913F4803F2AD110B4154B36
:1008B8000022C3F88420BFF34F8FD3F88040C4F3DD
:1008C8004E3000E01846C4F3C90200E01A4643F669
:1008D800E07303EA401343EA82730A49C1F86032BD
:1008E800531E002AF2D1431E0028EBD1BFF34F8FCD
:1008F8004B6943F480334B61BFF34F8FBFF36F8F66
:1009080010BC704700ED00E070B584B0002400947E
:1009180001940294039400F04BFA01258DF80050DD
:100928008DF801404FF0104601961B238DF80830D2
:100938008DF80B408DF80F408DF80E408DF80D4066
:100948008DF80C508DF80A508DF80940684600F073
:1009580051FA8DF800508DF80150019616238DF844
:10096800083005238DF80B308DF80F508DF80E5098
:100978008DF80D408DF80C408DF80A508DF809401F
:10098800684600F037FA042000F022FA04B070BD7F
:1009980070B59CB04C22002109A801F061FF20220B
:1009A800002101A801F05CFF022000F055FB0023A4
:1009B8000093234BDA6A22F00102DA62DB6A03F061
:1009C800010300931F4A936923F4404343F400430F
:1009D8009361936903F440430093009B194B9B690F
:1009E80013F4005FFAD0212309934FF480330A935C
:1009F80001230F9302241294139405231493C02304
:100A0800159304231693179418940826199600250D
:100A18001A951B9509A800F04BFB3F23019303236C
:100A28000293039504964023059306934FF480623E
:100A380007920893214601A800F0A2FF1CB070BDE0
:100A4800000400580048025808B5FFF75DFFFFF79B
:100A58000FFF00F0FBF8FFF79BFFFFF7C5FE00F064
:100A68000DF80821034800F0EDFA40F6B83000F020
:100A78002DF9F6E700100258704700BF08B5054881
:100A8800054B03600023436001F07EFE08B1FFF7C9
:100A9800F3FF08BD540400240018024810B5B0B094
:100AA8000446BC22002101A801F0DAFE22680E4BA0
:100AB8009A4216D130A84FF4003340F8BC3D01F0FB
:100AC800C1F908B1FFF7D8FF084BD3F8DC2042F092
:100AD8004002C3F8DC20D3F8DC3003F04003009375
:100AE800009B30B010BD00BF0018024800440258F7
:100AF80082B0074BD3F8F42042F00202C3F8F42086
:100B0800D3F8F43003F002030193019B02B070475D
:100B180000440258704700BFFEE700BFFEE700BF71
:100B2800FEE700BFFEE700BF704700BF704700BF89
:100B3800704700BF08B500F0B7F808BD144B1A6835
:100B480042F001021A6000221A6118681149014036
:100B580019609A61DA611A629A62DA621A635A63F0
:100B68009A63DA631A645A64196821F48021196057
:100B78001A66094B1A68094B1340B3F1005F02D299
:100B88000122074B1A604FF00062064B9A607047CB
:100B9800004402587FEDF6EA0010005C0000FFFFF9
:100BA8000881005100ED00E0DFF834D0FFF7C6FF00
:100BB8000C480D490D4A002302E0D458C4500433B0
:100BC800C4188C42F9D30A4A0A4C002301E0136086
:100BD8000432A242FBD301F01BFEFFF735FF70473A
:100BE800000008240000002438040024282A0008F3
:100BF800380400246C040024FEE70000104B1B7826
:100C0800C3B110B504464FF47A70B0FBF3F30D4A44
:100C18001068B0FBF3F000F0B5F868B90F2C0DD8E8
:100C2800002221464FF0FF3000F07CF8064B1C6094
:100C3800002010BD01207047012010BD012010BD0B
:100C48000C000024040000240800002410B5032030
:100C580000F056F800F086FD0F498B69C3F30323B3
:100C68000E4AD35C03F01F03D8408B6903F00F03CF
:100C7800D35C03F01F0320FA03F3094A1360094BFE
:100C880018600020FFF7BAFF18B90446FFF730FFD5
:100C980000E00124204610BD00440258082A00083C
:100CA8000000002404000024034B1978034A136849
:100CB8000B441360704700BF0C0000246804002434
:100CC800014B1868704700BF6804002438B5044613
:100CD800FFF7F6FF0546B4F1FF3F02D0044B1B783F
:100CE8001C44FFF7EDFF401B8442FAD838BD00BF13
:100CF8000C000024014B1868000C70470010005CC1
:100D0800064AD36823F4E0631B041B0C000200F4BA
:100D1800E0601843024B0343D360704700ED00E0E6
:100D28000000FA0530B4144BDB68C3F30223C3F1A7
:100D38000704042C28BF04241D1D062D01D9DD1E1F
:100D480000E00025012303FA04F4013C2140A940F6
:100D5800AB40013B1A400A43002804DB1201D2B21F
:100D6800064B1A5405E000F00F001201D2B2044BF2
:100D78001A5430BC704700BF00ED00E000E400E00A
:100D880014ED00E00138B0F1807F0AD2064B5860BC
:100D9800F021064A82F823100020986007221A6082
:100DA80070470120704700BF10E000E000ED00E050
:100DB800BFF35F8F044A536A23F4803353620022DF
:100DC800024B5A60704700BF00ED00E090ED00E074
:100DD80040F00100054B5860054A536A43F48033DC
:100DE8005362BFF34F8FBFF36F8F704790ED00E0F2
:100DF80000ED00E04278134B9A600378EBB143684A
:100E08001049CB60027BC37A1B0643EA0273827ADD
:100E180043EAC243427B43EA8243827B43EA42433A
:100E2800C27B43EA0243427A43EA0223027A43EA54
:100E38004203027813430B617047024B0022DA60C9
:100E48001A61704790ED00E0F0B583B00023E4E04C
:100E580001249C40224000F0DF804D6805F0030526
:100E6800013D012D15D887684FEA430E032606FA7F
:100E78000EF627EA0606CD6805FA0EF535438560B5
:100E8800456825EA04044D68C5F300159D402C43C8
:100E980044604C6804F00304032C09D0C6685F0062
:100EA8000325BD4026EA05058C68BC402C43C46078
:100EB8004C6804F00304022C0FD1DD08083550F803
:100EC800257003F00704A6000F24B44027EA04079E
:100ED8000C69B4403C4340F8254005685F00032690
:100EE800BE4025EA06064C6804F0030505FA07F437
:100EF800344304604C6814F4403F00F08D804A4C41
:100F0800D4F8F45045F00205C4F8F450D4F8F4408D
:100F180004F002040194019C9E08B51C434C54F84B
:100F2800257003F00304A4000F25A54027EA050750
:100F38003F4DA84225D005F58065A84223D005F588
:100F48008065A84221D005F58065A8421FD005F527
:100F58008065A8421DD005F58065A8421BD005F51F
:100F68008065A84219D005F58065A84217D005F517
:100F78008065A84215D005F58065A84213D10925DA
:100F880012E0002510E001250EE002250CE0032503
:100F98000AE0042508E0052506E0062504E0072503
:100FA80002E0082500E00A2505FA04F43C4302366D
:100FB8001E4D45F826404FF0B0442568D44305EA55
:100FC80004064F6817F4801F01D042EA05064FF067
:100FD800B0452E606E6804EA06054F6817F4001FD6
:100FE80001D042EA06054FF0B0467560114D6D68B4
:100FF80004EA05064F6817F4003F01D042EA0506E7
:101008000C4D6E602D682C404E6816F4803F01D060
:1010180042EA0504074A146001330A6832FA03F405
:101028007FF416AF03B0F0BD004402580004005826
:1010380000000258800000580AB181617047090415
:1010480081617047436903EA010221EA030141EA29
:1010580002418161704700BF144BDB6813F0040F35
:1010680007D1124BDB6803F00703834219D0012034
:10107800704710B50D4AD36823F007031843D060B2
:10108800FFF71EFE044605E0FFF71AFE001BB0F549
:101098007A7F08D8054B5B6813F4005FF4D0002012
:1010A80010BD00207047012010BD00BF0048025845
:1010B800002800F0178338B50446036813F0010FC1
:1010C80061D0A54A136903F03803926A102B05D042
:1010D800182B0CD102F00302022A08D19E4B1B6880
:1010E80013F4003F4FD06368002B4CD1FCE26368D7
:1010F800B3F5803F05D1984A136843F480331360F1
:1011080020E04BB9944B1A6822F480321A601A68AE
:1011180022F480221A6015E0B3F5A02F09D18E4B76
:101128001A6842F480221A601A6842F480321A60FF
:1011380008E0894B1A6822F480321A601A6822F48F
:1011480080221A6063687BB1FFF7BAFD054605E0A7
:10115800FFF7B6FD401B642800F2C8827E4B1B686F
:1011680013F4003FF4D00EE0FFF7AAFD054605E0B2
:10117800FFF7A6FD401B642800F2BA82764B1B6875
:1011880013F4003FF4D1236813F0020F00F09A80A3
:10119800714A1369926A13F0380304D0182B43D1AB
:1011A80012F0030F40D16C4B1B6813F0040F03D0EF
:1011B800E368002B00F09E8267490B6823F0190250
:1011C800E36813430B60FFF77BFD054605E0FFF777
:1011D80077FD401B022800F28F825F4B1B6813F0DB
:1011E800040FF4D0FFF786FD41F20303984212D8AA
:1011F8002269402A07D1584A536823F47C3343F4C0
:10120800003353605EE054494B6823F47C3343EA6F
:1012180002334B6056E0504A536823F0FE4321697D
:1012280043EA016353604DE0E268002A36D04A4938
:101238000B6823F0190313430B60FFF741FD0546C4
:1012480005E0FFF73DFD401B022800F25782424BA4
:101258001B6813F0040FF4D0FFF74CFD41F20303B1
:10126800984212D82269402A07D13B4A536823F48E
:101278007C3343F40033536024E037494B6823F44C
:101288007C3343EA02334B601CE0334A536823F053
:10129800FE43216943EA0163536013E02E4A136851
:1012A80023F001031360FFF70BFD054605E0FFF788
:1012B80007FD401B022800F22382274B1B6813F00E
:1012C800040FF4D1236813F0100F00F08880224A2D
:1012D800136903F03803926A082B05D0182B2ED116
:1012E80002F00302012A2AD11B4B1B6813F4807FEA
:1012F80003D0E369802B40F00582FFF7FBFC41F245
:101308000303984212D8226A202A07D1124A536846
:1013180023F0F84343F08043536060E00E494B6884
:1013280023F0F84343EA82634B6058E00A4AD368E3
:1013380023F07C53216A43EA0163D3604FE0E369F9
:10134800002B38D0044A136843F080031360FFF77A
:10135800B7FC054608E000BF00440258FFF7B0FCA0
:10136800401B022800F2D0818A4B1B6813F4807F4F
:10137800F4D0FFF7BFFC41F20303984212D8226A67
:10138800202A07D1834A536823F0F84343F0804367
:10139800536024E07F494B6823F0F84343EA8263B3
:1013A8004B601CE07B4AD36823F07C53216A43EAF4
:1013B8000163D36013E0774A136823F08003136056
:1013C800FFF77EFC054605E0FFF77AFC401B022884
:1013D80000F29C816F4B1B6813F4807FF4D1236863
:1013E80013F0080F2AD06369A3B16A4A536F43F018
:1013F80001035367FFF764FC054605E0FFF760FC4F
:10140800401B022800F28481624B5B6F13F0020FCD
:10141800F4D013E05F4A536F23F001035367FFF7DB
:101428004FFC054605E0FFF74BFC401B022800F285
:101438007181584B5B6F13F0020FF4D1236813F0DE
:10144800200F2AD0A369A3B1524A136843F48053EA
:101458001360FFF735FC054605E0FFF731FC401B3C
:10146800022800F259814B4B1B6813F4005FF4D03B
:1014780013E0484A136823F480531360FFF720FCF5
:10148800054605E0FFF71CFC401B022800F24681D8
:10149800404B1B6813F4005FF4D1236813F0040F6A
:1014A80061D03D4A136843F480731360FFF708FC6A
:1014B800054605E0FFF704FC401B642800F2308174
:1014C800354B1B6813F4807FF4D0A368012B05D13A
:1014D800304A136F43F0010313671FE04BB92D4BDC
:1014E8001A6F22F001021A671A6F22F004021A67B3
:1014F80014E0052B09D1274B1A6F42F004021A6732
:101508001A6F42F001021A6708E0224B1A6F22F0A4
:1015180001021A671A6F22F004021A67A3688BB1D6
:10152800FFF7CEFB054607E0FFF7CAFB401B41F279
:101538008833984200F2F680164B1B6F13F0020FA7
:10154800F2D010E0FFF7BCFB054607E0FFF7B8FB59
:10155800401B41F28833984200F2E6800D4B1B6F26
:1015680013F0020FF2D1636A002B00F0DF80094A02
:10157800126902F03802182A00F08B80022B73D10E
:10158800044A136823F080731360FFF799FB05463C
:101598000AE000BF0044025800480258FFF790FBD9
:1015A800401B022800F2C4806B4B1B6813F0007FBD
:1015B800F4D1694B9A6A69491140A26AE06A42EA21
:1015C80000120A439A62226B511EC1F30801626B32
:1015D800013A520292B21143A26B013A120402F488
:1015E800FE021143E26B013A120602F0FE420A4380
:1015F8001A63DA6A22F00102DA62596B584A0A4021
:10160800A16C42EAC1025A63DA6A22F00C01226C28
:101618000A43DA62DA6A22F00201626C0A43DA6289
:10162800DA6A42F48032DA62DA6A42F40032DA6262
:10163800DA6A42F48022DA62DA6A42F00102DA6295
:101648001A6842F080721A60FFF73AFB044604E019
:10165800FFF736FB001B02286CD83F4B1B6813F0C2
:10166800007FF5D0002038BD3B4A136823F0807313
:101678001360FFF725FB044604E0FFF721FB001B7E
:10168800022859D8344B1B6813F0007FF5D100208D
:1016980038BD314A916A106B012B4FD001F003031A
:1016A800A26A93424CD1C1F30511E36A994249D128
:1016B800C0F30802236B013B9A4245D1C0F346228E
:1016C800636B013B9A4241D1C0F30642A36B013BD5
:1016D8009A423DD1C0F30660E36B013B984239D092
:1016E800012038BD01207047012038BD032038BDD6
:1016F800032038BD012038BD032038BD032038BD84
:10170800032038BD012038BD032038BD032038BD73
:10171800032038BD032038BD032038BD032038BD61
:10172800032038BD032038BD032038BD002038BD54
:10173800032038BD032038BD032038BD012038BD43
:10174800012038BD012038BD012038BD012038BD39
:10175800012038BD002038BD004402580CFCFFFFB2
:101768000700FFFFF8B57F4B1B6903F03803102B08
:1017780000F0F280182B10D00BB17B48F8BD794BE4
:101788001B6813F0200F00F0E980764B1868C0F34F
:10179800C100764B23FA00F0F8BD724B9D6A05F044
:1017A80003059C6AC4F30514DA6A02F00102586B57
:1017B800C0F3CC0000FB02F0FEF74EFE0646002CFC
:1017C80000F0CE80012D54D015B1022D73D094E0D5
:1017D800644B1B6813F0200F29D0624D2B68C3F3AC
:1017E800C1036248D840FEF737FE07462046FEF799
:1017F80033FE01463846FEF73BFF0446286BC0F32C
:101808000800FEF729FE05464FF064513046FEF702
:101818007BFE01462846FEF76FFD4FF07E51FEF72E
:101828006BFD01462046FEF76FFE044686E0204623
:10183800FEF712FE01464E48FEF71AFF0446494BD2
:10184800186BC0F30800FEF707FE05464FF0645119
:101858003046FEF759FE01462846FEF74DFD4FF08B
:101868007E51FEF749FD01462046FEF74DFE04462F
:1018780064E02046FEF7F0FD01463E48FEF7F8FE1C
:101888000446384B186BC0F30800FEF7E5FD054623
:101898004FF064513046FEF737FE01462846FEF702
:1018A8002BFD4FF07E51FEF727FD01462046FEF73F
:1018B8002BFE044642E02046FEF7CEFD01462E48A8
:1018C800FEF7D6FE0446274B186BC0F30800FEF758
:1018D800C3FD05464FF064513046FEF715FE01463C
:1018E8002846FEF709FD4FF07E51FEF705FD01463B
:1018F8002046FEF709FE044620E02046FEF7ACFD30
:1019080001461C48FEF7B4FE0446164B186BC0F39C
:101918000800FEF7A1FD05464FF064513046FEF77A
:10192800F3FD01462846FEF7E7FC4FF07E51FEF72F
:10193800E3FC01462046FEF7E7FD0446094B186B19
:10194800C0F346200130FEF787FD01462046FEF72A
:101958008FFEFEF729FFF8BD0848F8BD0348F8BD1B
:101968000020F8BD0044025800093D000090D00353
:101978000024744C0024744A20BCBE4B40787D017E
:10198800002800F02F8170B504469E4B1B6803F0B9
:101998000F038B420BD29B4A136823F00F030B43B0
:1019A8001360136803F00F03994240F01D81236808
:1019B80013F0040F0CD02269934B9B6903F070035A
:1019C8009A4205D99048836923F0700313438361D1
:1019D800236813F0080F0CD062698B4BDB6903F0A6
:1019E80070039A4205D98848C36923F070031343EA
:1019F800C361236813F0100F0CD0A269824BDB6916
:101A080003F4E0639A4205D97F48C36923F4E0638D
:101A18001343C361236813F0200F0CD0E2697A4B9B
:101A28001B6A03F070039A4205D97748036A23F0CA
:101A3800700313430362236813F0020F0CD0E268AB
:101A4800714B9B6903F00F039A4205D96E4883696D
:101A580023F00F03134383610D46236813F0010F2E
:101A68003ED069498B6923F47062A36813438B6184
:101A78006368022B04D10A6812F4003F16D1B5E05E
:101A8800032B05D1604A126812F0007F0ED1AFE037
:101A9800012B05D15C4A126812F4807F06D1A9E0B7
:101AA800594A126812F0040F00F0A68056490A69D4
:101AB80022F0070213430B61FFF702F9064607E01D
:101AC800FFF7FEF8801B41F28833984200F29680B7
:101AD8004D4B1B6903F038036268B3EBC20FEFD1BB
:101AE800236813F0020F0CD0E268474B9B6903F0A0
:101AF8000F039A4205D244498B6923F00F0313431D
:101B08008B61404B1B6803F00F039D420AD23D4A8C
:101B1800136823F00F032B431360136803F00F03BC
:101B28009D426DD1236813F0040F0CD02269364B07
:101B38009B6903F070039A4205D233498B6923F0FD
:101B4800700313438B61236813F0080F0CD062698C
:101B58002D4BDB6903F070039A4205D22A49CB6901
:101B680023F070031343CB61236813F0100F0CD0DC
:101B7800A269254BDB6903F4E0639A4205D2224946
:101B8800CB6923F4E0631343CB61236813F0200F80
:101B98000CD0E2691C4B1B6A03F070039A4205D211
:101BA80019490B6A23F0700313430B62FFF7DAFD40
:101BB80015498B69C3F30323144AD35C03F01F034D
:101BC800D8408B6903F00F03D35C03F01F0320FA9E
:101BD80003F30F4A13600F4B18600F4B1868FFF799
:101BE8000DF870BD01207047012070BD012070BD47
:101BF800012070BD012070BD012070BD032070BDA3
:101C0800012070BD0020005200440258082A000834
:101C1800000000240400002408000024424B9B6AB2
:101C280003F00303032B79D070B50E4605463E4AF0
:101C3800136823F080631360FFF742F8044604E05A
:101C4800FFF73EF8001B02286AD8374B1B6813F0D1
:101C5800006FF5D1344B9A6A22F47C32296842EA43
:101C680001329A626A68511EC1F30801A868421ECF
:101C7800520292B241EA0200E9680139090401F40A
:101C8800FE0240EA02012A69013A120602F0FE4207
:101C98000A439A63DA6A22F0C0016A690A43DA627F
:101CA800DA6A22F02001AA690A43DA62DA6A22F0C3
:101CB8001002DA62D96B1D4A0A40E96942EAC10298
:101CC800DA63DA6A42F01002DA622EB91A46DB6A7F
:101CD80043F40023D3620CE0012E05D1124AD36AE3
:101CE80043F48013D36204E00F4AD36A43F4001329
:101CF800D3620D4A136843F080631360FEF7E0FF78
:101D0800044604E0FEF7DCFF001B02280AD8064B55
:101D18001B6813F0006FF5D0002070BD01207047DC
:101D2800032070BD032070BD004402580700FFFF68
:101D3800424B9B6A03F00303032B79D070B50E4620
:101D480005463E4A136823F080531360FEF7B8FF38
:101D5800044604E0FEF7B4FF001B02286AD8374B9C
:101D68001B6813F0005FF5D1344B9A6A22F07C723D
:101D7800296842EA01529A626A68511EC1F3080151
:101D8800A868421E520292B241EA0200E96801398B
:101D9800090401F4FE0240EA02012A69013A120626
:101DA80002F0FE420A431A64DA6A22F440616A6960
:101DB8000A43DA62DA6A22F40071AA690A43DA622B
:101DC800DA6A22F48072DA62596C1D4A0A40E969BB
:101DD80042EAC1025A64DA6A42F48072DA622EB9BF
:101DE8001A46DB6A43F48003D3620CE0012E05D166
:101DF800124AD36A43F40003D36204E00F4AD36A59
:101E080043F08073D3620D4A136843F08053136024
:101E1800FEF756FF044604E0FEF752FF001B0228B7
:101E28000AD8064B1B6813F0005FF5D0002070BD80
:101E380001207047032070BD032070BD0044025884
:101E48000700FFFFF8B50446036813F0006F2CD0B5
:101E5800436EB3F5801F11D001D843B11AE0B3F532
:101E6800001F11D0B3F5401F14D1002513E09F4A7D
:101E7800D36A43F40033D36200250CE00221043016
:101E8800FFF7CCFE054606E002212430FFF750FF9D
:101E9800054600E001255DB994490B6D23F4401215
:101EA800636E13430B652E4603E00026354600E0BB
:101EB8002E46236813F4807F25D0636D042B17D832
:101EC800DFE803F003090F171700884AD36A43F4C1
:101ED8000033D3620DE00021201DFFF79FFE054669
:101EE80007E0002104F12400FFF722FF054600E087
:101EF80001253DB97D490B6D23F00702636D13433E
:101F08000B6500E02E46236813F4007F2BD0A36DE9
:101F1800802B16D003D843B1402B0CD018E0C02B2F
:101F280017D0B3F5807F14D012E0704AD36A43F417
:101F38000033D3620DE00021201DFFF76FFE054638
:101F480007E0002104F12400FFF7F2FE054600E057
:101F580001253DB965490B6D23F4E072A36D134368
:101F68000B6500E02E46236813F4806F30D0D4F858
:101F7800A430B3F5800F18D004D853B1B3F5001FBF
:101F88000DD019E0B3F5C00F17D0B3F5000F14D07A
:101F980012E0564AD36A43F40033D3620DE00021BD
:101FA800201DFFF73BFE054607E0002104F1240051
:101FB800FFF7BEFE054600E0012545B94B498B6D8C
:101FC80023F46002D4F8A43013438B6500E02E4656
:101FD800236813F4006F30D0D4F8A830B3F1007F31
:101FE80018D004D853B1B3F1807F0DD019E0B3F104
:101FF800407F17D0B3F1806F14D012E03B4AD36A08
:1020080043F40033D3620DE00021201DFFF706FEE4
:10201800054607E0002104F12400FFF789FE054684
:1020280000E0012545B931498B6D23F0E062D4F811
:10203800A83013438B6500E02E46236813F0007F19
:1020480021D0A36C102B07D001D893B110E0202B1E
:1020580008D0302B0DD00BE0244AD36A43F4003368
:10206800D36206E00221201DFFF7D8FD054600E0F7
:1020780001253DB91D49CB6C23F03002A36C1343F5
:10208800CB6400E02E46236813F4805F31D0E36D03
:10209800B3F5005F18D004D853B1B3F5805F0DD005
:1020A80019E0B3F5405F17D0B3F5804F14D012E0B4
:1020B8000E4AD36A43F40033D3620DE00021201D99
:1020C800FFF7ACFD054607E0002104F12400FFF707
:1020D8002FFE054600E0012555B904490B6D23F490
:1020E800E042E36D13430B6503E000BF0044025870
:1020F8002E46236813F4005F2BD0236EB3F5003F00
:1021080015D004D8DBB1B3F5803F0AD016E0B3F59B
:10211800802F14D0B3F5A02F11D0B3F5403F0DD1C7
:102128000DE00121201DFFF779FD054607E001219B
:1021380004F12400FFF7FCFD054600E001253DB948
:102148008F490B6D23F4E022236E13430B6500E0E7
:102158002E46236813F4804F2DD0D4F8AC30B3F159
:10216800005F15D004D8DBB1B3F1805F0AD016E068
:10217800B3F1804F14D0B3F1A04F11D0B3F1405F49
:102188000DD10DE00121201DFFF748FD054607E0B0
:10219800012104F12400FFF7CBFD054600E00125ED
:1021A80045B977498B6D23F0E042D4F8AC3013433E
:1021B8008B6500E02E46236813F4004F1FD0E36EB2
:1021C800B3F1805F04D0B3F1005F07D063B90CE0CE
:1021D8006B4AD36A43F40033D36206E00121201D21
:1021E800FFF71CFD054600E001253DB964490B6D6C
:1021F80023F04052E36E13430B6500E02E4623683C
:1022080013F0807F1DD0636C032B0FD8DFE803F039
:102218000F02080F5A4AD36A43F40033D36206E028
:102228000221201DFFF7FAFC054600E001253DB913
:102238005349CB6C23F00302636C1343CB6400E077
:102248002E46236813F4800F65D04E4A136843F472
:1022580080731360FEF734FD074604E0FEF730FD97
:10226800C01B642805D8474B1B6813F4807FF5D042
:1022780000E00325002D4BD1414B1A6FD4F8B03044
:10228800534013F4407F0CD03D4B1A6F22F4407238
:10229800196F41F480311967196F21F4803119677A
:1022A8001A67D4F8B030B3F5807F11D1FEF708FD76
:1022B800074606E0FEF704FDC01B41F2883398424A
:1022C80005D82F4B1B6F13F0020FF3D000E0032546
:1022D80005BBD4F8B03003F44072B2F5407F09D1A1
:1022E8002748016921F47C51274A02EA13130B435A
:1022F800036104E0224A136923F47C531361204AE2
:10230800116FD4F8B030C3F30B030B43136702E02B
:102318002E4600E02E46236813F0010F37D0A36F36
:10232800282B23D8DFE803F023222222222222228C
:1023380015222222222222221B2222222222222289
:102348002322222222222222232222222222222263
:1023580023000121201DFFF761FC054607E001214C
:1023680004F12400FFF7E4FC054600E001256DB9FF
:1023780003494B6D23F03802A36F13434B6506E006
:102388000044025800480258CFFFFF002E46236839
:1023980013F0020F1FD0636F052B11D8DFE803F08D
:1023A8001103091111110121201DFFF737FC054602
:1023B80007E0012104F12400FFF7BAFC054600E01C
:1023C80001253DB9AC494B6D23F00702636F1343F8
:1023D8004B6500E02E46236813F0040F21D0D4F893
:1023E8009030052B11D8DFE803F011030911111102
:1023F8000121201DFFF712FC054607E0012104F129
:102408002400FFF795FC054600E0012545B99A49E7
:102418008B6D23F00702D4F8903013438B6500E0EE
:102428002E46236813F0200F2DD0D4F88C30B3F14A
:10243800005F15D004D8DBB1B3F1805F0AD016E095
:10244800B3F1804F14D0B3F1A04F11D0B3F1405F76
:102458000DD10DE00021201DFFF7E0FB054607E048
:10246800022104F12400FFF763FC054600E0012582
:1024780045B981494B6D23F0E042D4F88C301343C1
:102488004B6500E02E46236813F0400F2DD0D4F89A
:102498009830B3F5006F15D004D8DBB1B3F5806F71
:1024A8000AD016E0B3F5805F14D0B3F5A05F11D061
:1024B800B3F5406F0DD10DE00021201DFFF7AEFBF5
:1024C800054607E0022104F12400FFF731FC054628
:1024D80000E0012545B968498B6D23F4E052D4F832
:1024E800983013438B6500E02E46236813F0800F65
:1024F8002DD0D4F89C30B3F5804F15D004D8DBB17B
:10250800B3F5005F0AD016E0B3F5004F14D0B3F569
:10251800204F11D0B3F5C04F0DD10DE00021201D83
:10252800FFF77CFB054607E0022104F12400FFF7D2
:10253800FFFB054600E0012545B94F498B6D23F4A3
:102548006042D4F89C3013438B6500E02E46236824
:1025580013F0080F13D0D4F88030B3F5805F06D19C
:10256800022104F12400FFF7E3FB00B101264249F0
:102578004B6D23F44052D4F8803013434B652368E5
:1025880013F0100F13D0D4F89430B3F5807F06D130
:10259800022104F12400FFF7CBFB00B101263649E4
:1025A8008B6D23F44072D4F8943013438B65236801
:1025B80013F4002F21D0D4F8A030B3F5803F09D010
:1025C800B3F5003F0ED063B90021201DFFF726FBAD
:1025D800054607E0022104F12400FFF7A9FB0546A0
:1025E80000E0012545B924498B6D23F44032D4F825
:1025F800A03013438B6500E02E46236813F4802F28
:1026080023D0D4F88430B3F5001F0BD0B3F5401FA6
:1026180010D0B3F5801F0CD1174AD36A43F40033A6
:10262800D36207E0012104F12400FFF781FB05468E
:1026380000E0012545B910494B6D23F44012D4F848
:10264800843013434B6500E02E46236813F4803F23
:102658001FD0E36C1BB1B3F5803F06D00EE0064AED
:10266800D36A43F40033D36209E00221201DFFF747
:10267800D5FA054603E000BF0044025801253DB9DC
:102688004049CB6C23F48032E36C1343CB6400E005
:102698002E46236813F0005F06D0022104F12400BF
:1026A800FFF746FB00B10126236813F4003F1ED054
:1026B800E36FB3F5807F09D001D86BB90DE0B3F5AE
:1026C800007F0AD0B3F5407F06D106E02D4AD36AD1
:1026D80043F40033D36200E001253DB929494B6D2D
:1026E80023F44072E36F13434B6500E02E462368E2
:1026F80013F4801F06D023490B6D23F00042236F8B
:1027080013430B65236813F0805F07D01D490B69DD
:1027180023F48042D4F8B43013430B61236813F4D4
:10272800001F06D017490B6D23F08072A36E134368
:102738000B65236813F0804F09D0124B1A6922F4F5
:1027480000421A611969D4F8B8200A431A6123684B
:10275800002B06DA0B49CB6C23F04052236D134350
:10276800CB64236813F4000F07D006494B6D23F49C
:102778004002D4F8883013434B650EB90020F8BDE9
:102788000120F8BD0044025800283ED038B5044660
:10279800437A13F0FF0F03D100230372FEF77EF98B
:1027A8000223637221680B6823F0200263681343D5
:1027B8000B602268136843F00403136023685B68A6
:1027C80013F0400F03D004236372012038BDFEF7D5
:1027D80077FA05460FE0FEF773FA401B02280AD97C
:1027E80023685B6813F0040F05D004236372022387
:1027F800E360012038BD23685B6813F0040FEAD159
:10280800012363720020E06038BD0120704700BFDB
:1028180070B50F4E0F4D761BB61018BF002405D0AB
:10282800013455F8043B9847A642F9D10A4E0B4D9E
:10283800761B00F0D9F8B61018BF002406D0013472
:1028480055F8043B9847A642F9D170BD70BD00BF4A
:102858001C2A00081C2A0008242A00081C2A000830
:1028680070B4840746D0541E002A41D0CDB2034626
:1028780002E0621EE4B3144603F8015B9A07F8D13C
:10288800032C2ED9CDB245EA05250F2C45EA05457E
:1028980019D903F110022646103E0F2E42F8105C9B
:1028A80042F80C5C42F8085C42F8045C02F1100241
:1028B800F2D8A4F1100222F00F0204F00F04103233
:1028C800032C13440DD91E462246043A032A46F81F
:1028D800045BFAD8221F22F003020432134404F0E6
:1028E80003042CB1C9B21C4403F8011BA342FBD159
:1028F80070BC704714460346C2E700BF024B13B1D1
:10290800024800F005B870470000000025290008BB
:10291800002301461A46184600F014B838B5074D8A
:10292800074C2C1BA41005D0013C55F8043D9847D2
:10293800002CF9D1BDE8384000F05CB8282A00081E
:10294800242A00082DE9F047254C2568D5F8484188
:102958000646884692469946C4B360681F2817DC25
:10296800431C76B104EB80050122C5F888A0D4F891
:10297800881182401143022EC4F88811C5F80891C5
:102988001ED00230636044F820800020BDE8F08744
:10299800144B03B34FF4C870AFF300800446D0B1B2
:1029A800D5F84831002780E88800C5F848413846FE
:1029B8000123C4F88871C4F88C71002EE1D0D1E7E6
:1029C800D4F88C110A43C4F88C21DAE705F5A6740B
:1029D800C5F84841C1E74FF0FF30BDE8F08700BFB8
:1029E800182A000800000000F8B500BFF8BC08BCB1
:1029F8009E467047F8B500BFF8BC08BC9E467047B5
:102A0800000000000102030401020304060708098C
:042A18001000002486
:082A1C0005290008BD020008B5
:042A2400990200080B
:102A28000090D0030090D0031000000001000000C7
:102A380000000000FC02002464030024CC030024EE
:102A4800000000000000000000000000000000007E
:102A5800000000000000000000000000000000006E
:102A6800000000000000000000000000000000005E
:102A7800000000000000000000000000000000004E
:102A8800000000000000000000000000000000003E
:102A9800000000000000000000000000000000002E
:102AA800000000000000000000000000000000001E
:102AB800000000000000000000000000000000000E
:102AC80000000000000000000000000000000000FE
:102AD80000000000000000000100000000000000ED
:102AE8000E33CDAB34126DE6ECDE05000B000000B2
:102AF80000000000000000000000000000000000CE
:102B080000000000000000000000000000000000BD
:102B180000000000000000000000000000000000AD
:102B2800000000000000000000000000000000009D
:0400000508000BB133
:00000001FF
