:020000040800F2
:10000000000008248D0B0008050B0008070B0008F2
:10001000090B00080B0B00080D0B00080000000086
:100020000000000000000000000000000F0B0008AE
:10003000110B000800000000130B0008150B00084E
:10004000DD0B0008DD0B0008DD0B0008DD0B0008F0
:10005000DD0B0008DD0B0008DD0B0008DD0B0008E0
:10006000DD0B0008DD0B0008DD0B0008DD0B0008D0
:10007000DD0B0008DD0B0008DD0B0008DD0B0008C0
:10008000DD0B0008DD0B0008DD0B0008DD0B0008B0
:10009000DD0B0008DD0B0008DD0B0008DD0B0008A0
:1000A000DD0B0008DD0B0008DD0B0008DD0B000890
:1000B000DD0B0008DD0B0008DD0B0008DD0B000880
:1000C000DD0B0008DD0B0008DD0B0008DD0B000870
:1000D000DD0B0008DD0B0008DD0B0008DD0B000860
:1000E000DD0B0008DD0B000800000000DD0B000840
:1000F000DD0B0008DD0B0008DD0B0008DD0B000840
:10010000DD0B0008DD0B0008DD0B0008DD0B00082F
:10011000DD0B0008DD0B0008DD0B0008DD0B00081F
:10012000DD0B0008DD0B0008DD0B0008DD0B00080F
:10013000DD0B0008DD0B0008DD0B0008DD0B0008FF
:1001400000000000000000000000000000000000AF
:10015000DD0B0008DD0B0008DD0B0008DD0B0008DF
:10016000DD0B0008DD0B0008DD0B0008DD0B0008CF
:10017000DD0B0008DD0B0008DD0B0008DD0B0008BF
:10018000DD0B0008DD0B0008DD0B0008DD0B0008AF
:10019000DD0B0008DD0B0008DD0B0008DD0B00089F
:1001A000DD0B0008DD0B0008DD0B0008DD0B00088F
:1001B000DD0B0008DD0B0008DD0B0008DD0B00087F
:1001C000DD0B0008DD0B0008DD0B0008DD0B00086F
:1001D000DD0B0008DD0B0008DD0B0008DD0B00085F
:1001E000DD0B0008DD0B0008DD0B0008DD0B00084F
:1001F000DD0B0008DD0B0008DD0B0008DD0B00083F
:10020000DD0B0008DD0B0008DD0B0008DD0B00082E
:10021000DD0B0008DD0B0008DD0B0008DD0B00081E
:10022000DD0B0008DD0B0008DD0B000800000000FE
:10023000DD0B0008DD0B000800000000DD0B0008EE
:10024000DD0B0008DD0B0008DD0B0008DD0B0008EE
:10025000DD0B0008DD0B0008DD0B0008DD0B0008DE
:10026000DD0B0008DD0B0008DD0B0008DD0B0008CE
:10027000DD0B0008DD0B0008DD0B000800000000AE
:10028000DD0B0008DD0B0008DD0B0008000000009E
:0802900000000000DD0B000876
:1002980010B5054C237833B9044B13B10448AFF3B8
:1002A80000800123237010BD3C04002400000000DE
:1002B8001C2A000808B5034B1BB103490348AFF3D8
:1002C800008008BD00000000400400241C2A00082B
:1002D80080F0004002E000BF81F0004142001FBFF3
:1002E8005FEA410392EA030F7FEA226C7FEA236CFC
:1002F8006AD04FEA1262D2EB1363C1BFD2184140F1
:1003080048404140B8BF5B42192B88BF704710F086
:10031800004F40F4000020F07F4018BF404211F029
:10032800004F41F4000121F07F4118BF494292EA91
:10033800030F3FD0A2F1010241FA03FC10EB0C00BD
:10034800C3F1200301FA03F100F0004302D549424A
:1003580060EB4000B0F5000F13D3B0F1807F06D3F7
:1003680040084FEA310102F10102FE2A51D2B1F1EF
:10037800004F40EBC25008BF20F0010040EA0300E4
:100388007047490040EB0000013A28BFB0F5000F64
:10039800EDD2B0FA80FCACF1080CB2EB0C0200FA1A
:1003A8000CF0AABF00EBC25052421843BCBFD04069
:1003B8001843704792F0000F81F4000106BF80F4E3
:1003C80000000132013BB5E74FEA41037FEA226CA6
:1003D80018BF7FEA236C21D092EA030F04D092F071
:1003E800000F08BF0846704790EA010F1CBF0020A5
:1003F800704712F07F4F04D1400028BF40F0004002
:10040800704712F100723CBF00F50000704700F021
:10041800004343F0FE4040F4000070477FEA226248
:1004280016BF08467FEA23630146420206BF5FEA19
:10043800412390EA010F40F4800070474FF0000319
:1004480004E000BF10F0004348BF40425FEA000CE0
:1004580008BF704743F0964301464FF000001CE088
:1004680050EA010208BF70474FF000030AE000BFDE
:1004780050EA010208BF704711F0004302D540421C
:1004880061EB41015FEA010C02BF8446014600208E
:1004980043F0B64308BFA3F18053A3F50003BCFAA9
:1004A8008CF2083AA3EBC25310DB01FA02FC634456
:1004B80000FA02FCC2F12002BCF1004F20FA02F25D
:1004C80043EB020008BF20F00100704702F1200250
:1004D80001FA02FCC2F1200250EA4C0021FA02F2B1
:1004E80043EB020008BF20EADC7070474FF0FF0CB6
:1004F8001CEAD0521EBF1CEAD15392EA0C0F93EAB1
:100508000C0F6FD01A4480EA010C400218BF5FEA52
:1005180041211ED04FF0006343EA501043EA5111C5
:10052800A0FB01310CF00040B1F5000F3EBF4900BF
:1005380041EAD3715B0040EA010062F17F02FD2AC3
:100548001DD8B3F1004F40EBC25008BF20F00100A6
:10055800704790F0000F0CF0004C08BF49024CEABD
:10056800502040EA51207F3AC2BFD2F1FF0340EA4F
:10057800C250704740F400004FF00003013A5DDCC0
:1005880012F1190FDCBF00F000407047C2F1000201
:10059800410021FA02F1C2F1200200FA02FC5FEAEE
:1005A800310040F1000053EA4C0308BF20EADC7038
:1005B800704792F0000F00F0004C02BF400010F4AA
:1005C800000F013AF9D040EA0C0093F0000F01F057
:1005D800004C02BF490011F4000F013BF9D041EA79
:1005E8000C018FE70CEAD15392EA0C0F18BF93EA7B
:1005F8000C0F0AD030F0004C18BF31F0004CD8D1A5
:1006080080EA010000F00040704790F0000F17BF2B
:1006180090F0004F084691F0000F91F0004F14D071
:1006280092EA0C0F01D142020FD193EA0C0F03D1C9
:100638004B0218BF084608D180EA010000F00040CC
:1006480040F0FE4040F40000704740F0FE4040F4A7
:10065800400070474FF0FF0C1CEAD0521EBF1CEA46
:10066800D15392EA0C0F93EA0C0F69D0A2EB030264
:1006780080EA010C49024FEA402037D04FF08053FE
:1006880043EA111143EA10130CF000408B4238BFC3
:100698005B0042F17D024FF4000C8B4224BF5B1AD1
:1006A80040EA0C00B3EB510F24BFA3EB510340EA1F
:1006B8005C00B3EB910F24BFA3EB910340EA9C00CD
:1006C800B3EBD10F24BFA3EBD10340EADC001B013D
:1006D80018BF5FEA1C1CE0D1FD2A3FF650AF8B42E1
:1006E80040EBC25008BF20F0010070470CF0004CEE
:1006F8004CEA50207F32C2BFD2F1FF0340EAC25019
:10070800704740F400004FF00003013A37E792F0D9
:10071800000F00F0004C02BF400010F4000F013A37
:10072800F9D040EA0C0093F0000F01F0004C02BF32
:10073800490011F4000F013BF9D041EA0C0195E79B
:100748000CEAD15392EA0C0F08D142027FF47DAF34
:1007580093EA0C0F7FF470AF084676E793EA0C0F24
:1007680004D14B023FF44CAF08466EE730F0004C22
:1007780018BF31F0004CCAD130F000427FF45CAFB2
:1007880031F000437FF43CAF5FE700BF42000ED278
:10079800B2F1FE4F0BD34FF09E03B3EB126209D4B4
:1007A8004FEA002343F0004323FA02F070474FF06A
:1007B8000000704712F1610F01D1420202D14FF0DF
:1007C800FF3070474FF00000704700BF30B589B068
:1007D8000024039404940594069407941B4BD3F8BF
:1007E800E02042F01002C3F8E020D3F8E02002F045
:1007F80010020092009AD3F8E02042F00402C3F8F5
:10080800E020D3F8E02002F004020192019AD3F824
:10081800E02042F08002C3F8E020D3F8E03003F093
:1008280080030293029B0A4D22460821284600F0C5
:1008380013FC08230393012304930594069403A946
:10084800284600F0F5FA09B030BD00BF0044025850
:1008580000100258244B5B6913F4003F13D1BFF317
:100868004F8FBFF36F8F204B0022C3F85022BFF386
:100878004F8FBFF36F8F5A6942F400325A61BFF34A
:100888004F8FBFF36F8F184B5B6913F4803F2AD1EA
:1008980010B4154B0022C3F88420BFF34F8FD3F850
:1008A8008040C4F34E3000E01846C4F3C90243F652
:1008B800E07303EA401343EA82730B49C1F86032DC
:1008C8001346013A002BF2D1431E0028ECD1BFF3A6
:1008D8004F8F4B6943F480334B61BFF34F8FBFF3A6
:1008E8006F8F10BC7047704700ED00E070B584B0A2
:1008F8000024009401940294039400F04BFA01251B
:100908008DF800508DF801404FF0104601961B23DA
:100918008DF808308DF80B408DF80F408DF80E409B
:100928008DF80D408DF80C508DF80A508DF809405F
:10093800684600F04DFA8DF800508DF80150019688
:1009480016238DF8083005238DF80B308DF80F50DD
:100958008DF80E508DF80D408DF80C408DF80A502A
:100968008DF80940684600F033FA042000F020FAB8
:1009780004B070BD70B59CB04C22002109A801F0EC
:1009880087FF2022002101A801F082FF022000F049
:1009980073FB00230093234BDA6A22F00102DA6228
:1009A800DB6A03F0010300931F4A936923F4404371
:1009B80043F400439361936903F440430093009B1D
:1009C800194B9B6913F4005FFAD0212309934FF464
:1009D80080330A9301230F9302241294139405235E
:1009E8001493C02315930423169317941894082678
:1009F800199600251A951B9509A800F067FB3F2357
:100A080001930323029303950496402305930693C9
:100A18004FF4806207920893214601A800F09CFFDA
:100A28001CB070BD000400580048025808B5FFF714
:100A38005DFFFFF70FFF00F0F7F8FFF79BFFFFF7E9
:100A4800C5FE00F00DF80821034800F00BFBC82094
:100A580000F02AF9F7E700BF0010025870470000BD
:100A680008B50648064B03600023436001F0ACFE5E
:100A780000B908BDFFF7F2FFFBE700BF58040024E8
:100A88000018024810B5B0B00446BC22002101A8E5
:100A980001F0FEFE22680E4B9A4201D030B010BD24
:100AA8004FF40033019301A801F0ACF968B9094B80
:100AB800D3F8DC2042F04002C3F8DC20D3F8DC3065
:100AC80003F040030093009BE8E7FFF7C7FFEEE75A
:100AD800001802480044025882B0074BD3F8F420AB
:100AE80042F00202C3F8F420D3F8F43003F0020312
:100AF8000193019B02B07047004402587047FEE71B
:100B0800FEE7FEE7FEE770477047704708B500F05C
:100B1800B9F808BD154B1A6842F001021A600022A4
:100B28001A6118681249014019609A61DA611A62FB
:100B38009A62DA621A635A639A63DA631A645A64C5
:100B4800196821F4802119601A660A4B1A680A4B41
:100B58001340B3F1005F03D2084B0122C3F8082108
:100B6800074B4FF000629A60704700BF004402587C
:100B78007FEDF6EA0010005C0000FFFF00800051E6
:100B880000ED00E0DFF834D0FFF7C4FF0C480D4952
:100B98000D4A002302E0D458C4500433C4188C42D0
:100BA800F9D30A4A0A4C002301E013600432A24236
:100BB800FBD301F049FEFFF739FF70470000082416
:100BC800000000243C040024542A00083C040024AB
:100BD80074040024FEE70000104B1B780BB90120B9
:100BE800704710B504464FF47A70B0FBF3F30C4A23
:100BF8001068B0FBF3F000F0B9F868B90F2C01D910
:100C080001200AE0002221464FF0FF3000F078F87A
:100C1800044B1C60002000E0012010BD08000024E7
:100C2800000000240C00002410B5032000F056F842
:100C380000F086FD0F498B69C3F303230E4AD35C8A
:100C480003F01F03D8408B6903F00F03D35C03F054
:100C58001F0320FA03F3094A1360094B18600020A8
:100C6800FFF7BAFF10B10124204610BD0446FFF774
:100C780033FFF9E700440258342A0008040000242E
:100C880000000024034B1B78034A11680B441360CF
:100C9800704700BF080000246C040024014B18684A
:100CA800704700BF6C04002438B50446FFF7F6FF10
:100CB8000546B4F1FF3F02D0044B1B781C44FFF7F4
:100CC800EDFF401BA042FAD338BD00BF0800002446
:100CD800014B1868000C70470010005C0649CB688F
:100CE80023F4E0631B041B0C000200F4E0600343E0
:100CF800024A1A43CA60704700ED00E00000FA0596
:100D080000B5174BDB68C3F30223C3F1070CBCF132
:100D1800040F28BF4FF0040C03F1040EBEF1060FB8
:100D280014D9033B4FF0FF3E0EFA0CFC21EA0C01EC
:100D380099400EFA03F322EA03031943002807DB5C
:100D48000901C9B2074B19545DF804FB0023E9E710
:100D580000F00F000901C9B2034B1954F4E700BFB2
:100D680000ED00E000E400E014ED00E00138B0F12F
:100D7800807F0BD24FF0E0235861054AF02182F8BA
:100D880023100020986107221A61704701207047DC
:100D980000ED00E0BFF35F8F044B5A6A22F4803203
:100DA8005A620022C3F89420704700BF00ED00E0AB
:100DB80040F00100054BC3F894005A6A42F48032AF
:100DC8005A62BFF34F8FBFF36F8F704700ED00E09B
:100DD8004278164BC3F898200378FBB14368134A4E
:100DE800C2F89C30017BC37A1B0643EA0173817AFF
:100DF80043EAC143417B43EA8143817B43EA414360
:100E0800C17B43EA0143417A43EA0123017A43EA79
:100E1800410301780B43C2F8A0307047034B00220E
:100E2800C3F89C20C3F8A020704700BF00ED00E085
:100E380070B582B000236EE085685E000324B4407C
:100E480025EA0405CC68B4402C438460446824EA4D
:100E58000C0C4C68C4F300149C4044EA0C04446035
:100E68006CE0DD08083550F8256003F007044FEA08
:100E7800840C0F2404FA0CF426EA040E0C6904FA14
:100E88000CF444EA0E0440F825406FE0092400E021
:100E9800002404FA0EF42C430CF1020C6B4D45F8B7
:100EA8002C404FF0B0442568D44325EA0206D1F817
:100EB80004C01CF4801F01D042EA05064FF0B0457B
:100EC8002E606D6804EA0506D1F804C01CF4001F02
:100ED80001D042EA05064FF0B0456E60D5F884505F
:100EE80004EA0506D1F804C01CF4003F01D042EA28
:100EF80005064FF0B045C5F88460D5F880502C4001
:100F08004E6816F4803F01D042EA05044FF0B04223
:100F1800C2F8804001330A6832FA03F400F0938083
:100F28004FF0010C0CFA03FC1CEA0202F2D04C68E8
:100F380004F00304013C012C7FF67EAF4C6804F0FA
:100F48000304032C0CD0C4685D004FF0030C0CFAAA
:100F580005FC24EA0C0C8C68AC4044EA0C04C46020
:100F68004C6804F00304022C3FF47BAF04684FEA9A
:100F7800430E4FF0030C0CFA0EFC24EA0C0C4C68E0
:100F880004F0030404FA0EF444EA0C0404604C6808
:100F980014F4403FBED02E4CD4F8F45045F002056E
:100FA800C4F8F450D4F8F44004F002040194019C0D
:100FB8004FEA930C0CF10205244C54F8255003F029
:100FC80003044FEA840E0F2404FA0EF425EA0405FC
:100FD800204CA0423FF45CAF04F58064A04222D0CC
:100FE80004F58064A04220D004F58064A0421ED09D
:100FF80004F58064A0421CD004F58064A0421AD095
:1010080004F58064A04218D004F58064A04216D08C
:1010180004F58064A04214D004F58064A0423FF433
:1010280035AF0A2435E7012433E7022431E70324E6
:101038002FE704242DE705242BE7062429E70724B6
:1010480027E7082425E702B070BD00BF0004005858
:1010580000440258000002580AB18161704709042F
:1010680081617047436901EA030221EA030141EA09
:101078000241816170470000134BDB6813F0040FD5
:1010880007D1114BDB6803F0070383421AD0012014
:10109800704710B50C4AD36823F007031843D06093
:1010A800FFF7FCFD0446084B5B6813F4005F07D1AB
:1010B800FFF7F4FD001BB0F57A7FF4D9012000E0BA
:1010C800002010BD0020704700480258002800F09A
:1010D800188338B50446036813F0010F25D0944AE5
:1010E800136903F03803926A102B15D0182B0FD010
:1010F8006368B3F5803F3FD0002B53D18C4B1A68FF
:1011080022F480321A601A6822F480221A6038E0C9
:1011180002F00302022AEBD1854B1B6813F4003F4F
:1011280003D06368002B00F0EE82236813F0020FEF
:1011380000F0A1807E4A1369926A13F038035AD0EE
:10114800182B55D0E368002B00F0DE8078490A6838
:1011580022F0190213430B60FFF7A0FD0546744BFC
:101168001B6813F0040F40F0AD80FFF797FD401B9C
:101178000228F4D90320CDE26D4A136843F4803382
:10118800136063682BB3FFF789FD0546684B1B683E
:1011980013F4003FC9D1FFF781FD401B6428F5D93E
:1011A8000320B7E2B3F5A02F09D0614B1A6822F4E7
:1011B80080321A601A6822F480221A60E1E75C4BD8
:1011C8001A6842F480221A601A6842F480321A605F
:1011D800D7E7FFF763FD0546554B1B6813F4003F3F
:1011E800A3D0FFF75BFD401B6428F5D9032091E2EB
:1011F80012F0030FA6D14E4B1B6813F0040F03D057
:10120800E368002B00F08182494A136823F0190330
:10121800E1680B431360FFF741FD0546444B1B682B
:1012280013F0040F06D1FFF739FD401B0228F5D94A
:1012380003206FE2FFF74CFD41F20303984212D8F6
:101248002269402A07D03A494B6823F47C3343EAA1
:1012580002334B600FE0364A536823F47C3343F47F
:101268000033536007E0324A536823F0FE43216994
:1012780043EA01635360236813F0100F00F088807D
:101288002B4A136903F03803926A082B56D0182B9F
:1012980050D0E369002B00F0B880254A136843F06A
:1012A80080031360FFF7FAFC0546214B1B6813F413
:1012B800807F40F08880FFF7F1FC401B0228F4D9BA
:1012C800032027E2FFF704FD41F20303984212D8F6
:1012D8002269402A07D016494B6823F47C3343EA35
:1012E80002334B60C7E7124A536823F47C3343F454
:1012F80000335360BFE70E4A536823F0FE43216969
:1013080043EA01635360B6E7094A136823F001030F
:101318001360FFF7C3FC0546054B1B6813F0040F69
:10132800A9D0FFF7BBFC401B0228F5D90320F1E147
:101338000044025802F00302012AAAD1A14B1B68FB
:1013480013F4807F03D0E369802B40F0E081FFF73E
:10135800BFFC41F20303984212D8226A202A07D020
:1013680098494B6823F0F84343EA82634B600FE0E7
:10137800944A536823F0F84343F08043536007E0EE
:10138800904AD36823F07C53216A43EA0163D3600F
:10139800236813F0080F60D06369002B49D0894A8D
:1013A800536F43F001035367FFF778FC0546854BFD
:1013B8005B6F13F0020F50D1FFF770FC401B02283F
:1013C800F5D90320A6E1FFF783FC41F20303984215
:1013D80012D8226A202A07D07A494B6823F0F843AA
:1013E80043EA82634B60D3E7764A536823F0F843B5
:1013F80043F080435360CBE7724AD36823F07C53B1
:10140800216A43EA0163D360C2E76E4A136823F096
:1014180080031360FFF742FC05466A4B1B6813F410
:10142800807FB5D0FFF73AFC401B0228F5D903208E
:1014380070E1644A536F23F001035367FFF72EFCF2
:101448000546604B5B6F13F0020F06D0FFF726FCD2
:10145800401B0228F5D903205CE1236813F0200F14
:1014680029D0A3699BB1574A136843F4805313608A
:10147800FFF714FC0546534B1B6813F4005F1AD1A1
:10148800FFF70CFC401B0228F5D9032042E14D4A26
:10149800136823F480531360FFF700FC0546494B9B
:1014A8001B6813F4005F06D0FFF7F8FB401B022807
:1014B800F5D903202EE1236813F0040F21D1636AC4
:1014C800002B00F026813F4A126902F03802182AE0
:1014D80000F0EE80022B79D03A4A136823F080732B
:1014E8001360FFF7DBFB0446364B1B6813F0007FE5
:1014F80000F0DC80FFF7D2FB001B0228F4D90320A0
:1015080008E1314A136843F480731360FFF7C6FBA0
:1015180005462D4B1B6813F4807F06D1FFF7BEFBF1
:10152800401B6428F5D90320F4E0A368012B0AD0F6
:101538000BBB244B1A6F22F001021A671A6F22F0B4
:1015480004021A6704E01F4A136F43F0010313678C
:10155800A36833B3FFF7A2FB05461A4B1B6F13F0C2
:10156800020FACD1FFF79AFB401B41F28833984237
:10157800F3D90320CEE0052B09D0124B1A6F22F0C5
:1015880001021A671A6F22F004021A67E0E70D4B8E
:101598001A6F42F004021A671A6F42F001021A67C2
:1015A800D6E7FFF77BFB0546064B1B6F13F0020FD0
:1015B80085D0FFF773FB401B41F288339842F3D97B
:1015C8000320A7E00044025800480258594A13680B
:1015D80023F080731360FFF761FB0546554B1B68CA
:1015E80013F0007F06D0FFF759FB401B0228F5D9FE
:1015F80003208FE04F4B996A4F4A0A40A16AE06A7C
:1016080041EA00110A439A62226B013AC2F30802C6
:10161800616B0139490289B20A43A16B0139090496
:1016280001F4FE010A43E16B0139090601F0FE41AC
:101638000A431A63DA6A22F00102DA62596B3F4AF6
:101648000A40A16C42EAC1025A63DA6A22F00C022B
:10165800216C0A43DA62DA6A22F00202616C0A43F8
:10166800DA62DA6A42F48032DA62DA6A42F4003222
:10167800DA62DA6A42F48022DA62DA6A42F0010255
:10168800DA621A6842F080721A60FFF707FB0446B4
:10169800284B1B6813F0007F06D1FFF7FFFA001BE9
:1016A8000228F5D9032035E0002033E0002031E09E
:1016B800204A916A106B012B2DD001F00303A26A16
:1016C80093422AD1C1F30511E36A994227D1C0F3A5
:1016D8000802236B013B9A4223D1C0F34622636B75
:1016E800013B9A421FD1C0F30642A36B013B9A42C9
:1016F8001BD1C0F30660E36B013B984217D1002071
:1017080008E001207047012004E0012002E00120E8
:1017180000E0002038BD0120FCE70120FAE70120A5
:10172800F8E70120F6E70120F4E70120F2E70120BD
:10173800F0E700BF004402580CFCFFFF0700FFFF62
:10174800F8B57E4B1B6903F03803102B00F0F280CC
:10175800182B10D013B17A4C2046F8BD774B1B6874
:1017680013F0200F00F0E880744B1868C0F3C10034
:10177800744CC440F0E7714B9D6A05F003059C6A00
:10178800C4F30514D86A00F001005B6BC3F3CC0303
:1017980003FB00F0FEF752FE0646002CDCD0012DBC
:1017A80076D0022D00F0A4800DB32046FEF746FE49
:1017B80001466548FEF74EFF0446604B186BC0F3C0
:1017C8000800FEF73BFE05464FF064513046FEF731
:1017D8008DFE01462846FEF781FD4FF07E51FEF74B
:1017E8007DFD01462046FEF781FE044671E0534B1D
:1017F8001B6813F0200F29D0504F3B68C3F3C10377
:101808005048D840FEF71AFE05462046FEF716FE59
:1018180001462846FEF71EFF0446386BC0F3080051
:10182800FEF70CFE05464FF064513046FEF75EFEAB
:1018380001462846FEF752FD4FF07E51FEF74EFD59
:1018480001462046FEF752FE044642E02046FEF7D7
:10185800F5FD01463D48FEF7FDFE0446374B186B83
:10186800C0F30800FEF7EAFD05464FF06451304624
:10187800FEF73CFE01462846FEF730FD4FF07E514C
:10188800FEF72CFD01462046FEF730FE044620E018
:101898002046FEF7D3FD01462B48FEF7DBFE044643
:1018A800264B186BC0F30800FEF7C8FD05464FF03D
:1018B80064513046FEF71AFE01462846FEF70EFD33
:1018C8004FF07E51FEF70AFD01462046FEF70EFE58
:1018D80004461A4B1B6BC3F34623581CFEF7AEFD98
:1018E80001462046FEF7B6FEFEF750FF044633E7F2
:1018F8002046FEF7A3FD01461548FEF7ABFE044659
:101908000E4B186BC0F30800FEF798FD05464FF024
:1019180064513046FEF7EAFD01462846FEF7DEFC34
:101928004FF07E51FEF7DAFC01462046FEF7DEFD59
:101938000446CEE7074C0FE7024C0DE70044025877
:1019480000093D000090D0030024744A0024744C20
:1019580020BCBE4B40787D01002800F0328170B574
:101968000D4604469B4B1B6803F00F038B420BD2BA
:10197800984A136823F00F030B431360136803F0AE
:101988000F038B4240F01F81236813F0040F0CD023
:101998002269914B9B6903F070039A4205D98E49DD
:1019A8008B6923F070031A438A61236813F0080FC8
:1019B8000CD06269884BDB6903F070039A4205D941
:1019C8008549CB6923F070031A43CA61236813F071
:1019D800100F0CD0A269804BDB6903F4E0639A42D4
:1019E80005D97D49CB6923F4E0631A43CA612368AA
:1019F80013F0200F0CD0E269774B1B6A03F07003D9
:101A08009A4205D974490B6A23F070031A430A6293
:101A1800236813F0020F0CD0E2686F4B9B6903F048
:101A28000F039A4205D96C498B6923F00F031A43B7
:101A38008A61236813F0010F41D0674A936923F440
:101A48007063A1680B4393616368022B0AD0032B70
:101A580027D0012B2CD0604A126812F0040F06D14F
:101A68000120ADE0126812F4003F00F0AE805A4940
:101A78000A6922F0070213430B61FFF70FF90646C4
:101A8800554B1B6903F038036268B3EBC20F16D0DD
:101A9800FFF704F9801B41F288339842F0D90320FC
:101AA8008EE04D4A126812F0007FE0D1012087E0F5
:101AB800494A126812F4807FD9D1012080E0236856
:101AC80013F0020F0CD0E268434B9B6903F00F033D
:101AD8009A4205D240498B6923F00F031A438A6161
:101AE8003C4B1B6803F00F03AB420AD9394A136811
:101AF80023F00F032B431360136803F00F03AB426B
:101B080065D1236813F0040F0CD02269324B9B690E
:101B180003F070039A4205D22F498B6923F07003B2
:101B28001A438A61236813F0080F0CD062692A4BA4
:101B3800DB6903F070039A4205D22749CB6923F089
:101B480070031A43CA61236813F0100F0CD0A269FE
:101B5800214BDB6903F4E0639A4205D21E49CB6945
:101B680023F4E0631A43CA61236813F0200F0CD0F2
:101B7800E269194B1B6A03F070039A4205D21649B1
:101B88000B6A23F070031A430A62FFF7D9FD124962
:101B98008B69C3F30323114AD35C03F01F03D840B6
:101BA8008B6903F00F03D35C03F01F0320FA03F3E0
:101BB8000B4A13600B4B18600B4B1868FFF70CF8B7
:101BC80070BD012070470120FAE70120F8E70120E5
:101BD800F6E700BF0020005200440258342A0008EB
:101BE80004000024000000240C000024404B9B6AE1
:101BF80003F00303032B79D070B505460E463C4A23
:101C0800136823F080631360FFF748F80446384BE5
:101C18001B6813F0006F06D0FFF740F8031B022B78
:101C2800F5D9032070BD324B9A6A22F47C322968B8
:101C380042EA01329A626A68013AC2F30802A96864
:101C48000139490289B20A43E9680139090401F4F2
:101C5800FE010A4329690139090601F0FE410A43D8
:101C68009A63DA6A22F0C00269690A43DA62DA6AB8
:101C780022F02002A9690A43DA62DA6A22F0100225
:101C8800DA62D96B1B4A0A40E96942EAC102DA639F
:101C9800DA6A42F01002DA62C6B91A46DB6A43F41D
:101CA8000023D362124A136843F080631360FEF77F
:101CB800F5FF04460E4B1B6813F0006F14D1FEF7B6
:101CC800EDFF001B0228F5D90320ABE7012E05D054
:101CD800074AD36A43F40013D362E3E7044AD36A9A
:101CE80043F48013D362DDE700209BE701207047AF
:101CF800004402580700FFFF404B9B6A03F00303B0
:101D0800032B79D070B505460E463C4A136823F07C
:101D180080531360FEF7C2FF0446384B1B6813F06C
:101D2800005F06D0FEF7BAFF031B022BF5D903208C
:101D380070BD324B9A6A22F07C72296842EA0152DD
:101D48009A626A68013AC2F30802A968013949022D
:101D580089B20A43E9680139090401F4FE010A431A
:101D680029690139090601F0FE410A431A64DA6A51
:101D780022F4406269690A43DA62DA6A22F400727C
:101D8800A9690A43DA62DA6A22F48072DA62596C63
:101D98001B4A0A40E96942EAC1025A64DA6A42F413
:101DA8008072DA62C6B91A46DB6A43F48003D362EA
:101DB800124A136843F080531360FEF76FFF04461E
:101DC8000E4B1B6813F0005F14D1FEF767FF001B72
:101DD8000228F5D90320ABE7012E05D0074AD36ABC
:101DE80043F08073D362E3E7044AD36A43F4000301
:101DF800D362DDE700209BE70120704700440258CA
:101E08000700FFFFF8B50446036813F0006F30D0F1
:101E1800436EB3F5001F26D00ED8EBB1B3F5801F83
:101E280007D102210430FFF7E1FE054645B12E46F1
:101E380021E0012635461EE0B3F5401F09D10025F3
:101E4800954A136D23F44013616E0B431365002606
:101E580011E0012635460EE08F4AD36A43F4003379
:101E6800D3620025ECE702212430FFF745FF054641
:101E7800DCE700263546236813F4807F14D0636DB1
:101E8800042B30D8DFE803F0032228080800824A30
:101E9800D36A43F40033D36245BB7F4A136D23F002
:101EA8000703616D0B431365236813F4007F2FD07C
:101EB800A36D802B49D01ED8002B40D0402B17D1C2
:101EC8000021201DFFF792FE054619E00021201D84
:101ED800FFF78CFE0546DFE7002104F12400FFF739
:101EE8000BFF0546D8E701263546DDE72E46DBE73A
:101EF800012635460CE0C02B02D0B3F5807F1BD1FC
:101F080055BB654A136D23F4E073A16D0B4313654C
:101F1800236813F4806F45D0D4F8A430B3F5800F4C
:101F280038D01ED883B3B3F5001F17D10021201D68
:101F3800FFF75CFE05461AE001263546E8E7564AF3
:101F4800D36A43F40033D362DAE7002104F12400B2
:101F5800FFF7D2FE0546D3E72E46D9E701263546D8
:101F680020E0B3F5C00F02D0B3F5000F09D1C5B911
:101F7800494A936D23F46003D4F8A4100B43936586
:101F880010E0012635460DE0434AD36A43F4003396
:101F9800D362ECE7002104F12400FFF7ADFE05460B
:101FA800E5E72E46236813F4006F23D0D4F8A83051
:101FB800B3F1007F41D00DD8002B38D0B3F1807F2A
:101FC80005D10021201DFFF711FE054608E0012676
:101FD80035460FE0B3F1407F02D0B3F1806F23D1D3
:101FE800002D31D12C4A936D23F0E063D4F8A8106A
:101FF8000B439365236813F0007F2ED0A36C202B2E
:102008003FD026D833B1102B20D1234AD36A43F4CA
:102018000033D362002D3AD11F4AD36C23F030032A
:10202800A16C0B43D36418E001263546E2E71A4A4F
:10203800D36A43F40033D362D2E7002104F12400C9
:10204800FFF75AFE0546CBE72E46D3E7012635466D
:1020580003E0302BDED001263546236813F4805F79
:102068002BD0E36DB3F5005F4CD017D8002B43D0CD
:10207800B3F5805F0DD10021201DFFF7B7FD0546A0
:1020880012E00221201DFFF7B1FD0546C2E72E46EA
:10209800E3E70126354610E000440258B3F5405FF7
:1020A80002D0B3F5804F24D1002D32D1754A136D7B
:1020B80023F4E043E16D0B431365236813F4005FD9
:1020C80037D0236EB3F5003F51D027D83BB1B3F5D5
:1020D800803F20D10121201DFFF788FD0546002DF6
:1020E8004CD1684A136D23F4E023216E0B4313652A
:1020F8001FE001263546E0E7624AD36A43F400331D
:10210800D362D1E7002104F12400FFF7F5FD05466D
:10211800CAE72E46D1E7012635460AE0B3F5802FF7
:10212800DDD0B3F5A02FDAD0B3F5403FD7D00126E4
:102138003546236813F4804F30D0D4F8AC30B3F16F
:10214800005F44D01FD83BB1B3F1805F18D10121A3
:10215800201DFFF74BFD0546002D3FD1494A936DE1
:1021680023F0E043D4F8AC100B43936516E001214B
:1021780004F12400FFF7C0FD0546B0E72E46D8E776
:10218800012635460AE0B3F1804FE5D0B3F1A04F00
:10219800E2D0B3F1405FDFD001263546236813F45F
:1021A800004F09D0E36EB3F1805F19D0B3F1005F3F
:1021B80024D0D3B101263546236813F0807F32D06E
:1021C800636C032B59D8DFE803F02621522601213E
:1021D80004F12400FFF790FD0546BDE72E46DDE734
:1021E800284AD36A43F40033D3626DB9254A136D84
:1021F80023F04053E16E0B431365DDE70121201DF9
:10220800FFF7F4FC0546F0E72E46D5E71D4AD36AEA
:1022180043F40033D3629DBB1A4AD36C23F0030303
:10222800616C0B43D364236813F4800F2CD12368AB
:1022380013F0010F00F0A380A36F282B00F29D80FC
:10224800DFE803F08B9B9B9B9B9B9B9B869B9B9BAD
:102258009B9B9B9B949B9B9B9B9B9B9B8B9B9B9BDD
:102268009B9B9B9B8B9B9B9B9B9B9B9B8B00022184
:10227800201DFFF7BBFC0546CDE701263546D2E712
:102288002E46D0E7004402588F4A136843F48073FF
:102298001360FEF703FD07468B4B1B6813F4807F22
:1022A80005D1FEF7FBFCC01B6428F5D90325002DDA
:1022B8004AD1864B1B6FD4F8B020534013F4407FAB
:1022C8000CD0824B1A6F22F44072196F41F480319E
:1022D8001967196F21F4803119671A67D4F8B0307B
:1022E800B3F5807F15D08DBBD4F8B03003F44072BD
:1022F800B2F5407F1ED0754A136923F47C531361ED
:1023080072490B6FD4F8B020C2F30B0213430B676A
:102318008DE7FEF7C3FC07466C4B1B6F13F0020FEB
:10232800E1D1FEF7BBFCC01B41F288339842F3D9D8
:102338000325D8E76548026922F47C52644901EA1A
:10234800131313430361DBE72E4670E72E466EE74F
:102358000121201DFFF74AFC0546E5B95B4A536D8C
:1023680023F03803A16F0B43536508E0012104F102
:102378002400FFF7C1FC0546EFE701263546236830
:1023880013F0020F16D0636F052B27D8DFE803F090
:102398000A051F0A0A0A2E46F1E70121201DFFF748
:1023A80025FC0546EDB9494A536D23F00703616FD3
:1023B8000B435365236813F0040F22D0D4F89030F0
:1023C800052B43D8DFE803F0140F3B141414012144
:1023D80004F12400FFF790FC0546E3E701263546A3
:1023E800E8E72E46E6E70121201DFFF7FFFB05463B
:1023F8007DBB364A936D23F00703D4F890100B4346
:102408009365236813F0200F33D0D4F88C30B3F1E0
:10241800005F4CD022D83BB1B3F1805F1BD10021C3
:10242800201DFFF7E3FB0546002D47D1274A536DD2
:1024380023F0E043D4F88C100B43536519E00121D5
:1024480004F12400FFF758FC0546D1E7012635467C
:10245800D7E72E46D5E7012635460AE0B3F1804F87
:10246800E2D0B3F1A04FDFD0B3F1405FDCD001265A
:102478003546236813F0400F37D0D4F89830B3F5B9
:10248800006F52D026D83BB1B3F5806F18D1002128
:10249800201DFFF7ABFB0546002D4DD10B4A936D70
:1024A80023F4E053D4F898100B4393651DE0022100
:1024B80004F12400FFF720FC0546B5E72E46D8E7CF
:1024C8000126354611E000BF004802580044025872
:1024D800CFFFFF00B3F5805FDED0B3F5A05FDBD0A0
:1024E800B3F5406FD8D001263546236813F0800F26
:1024F80032D0D4F89C30B3F5804F00F09D8020D8BE
:102508003BB1B3F5005F19D10021201DFFF76EFB29
:102518000546002D40F09780A54A936D23F460434B
:10252800D4F89C100B43936516E0022104F12400B3
:10253800FFF7E2FB0546AFE72E46D6E7012635460C
:102548000AE0B3F5004FE4D0B3F5204FE1D0B3F57E
:10255800C04FDED001263546236813F0080F0CD093
:10256800D4F88030B3F5805F6FD0914A536D23F46F
:102578004053D4F880100B435365236813F0100FB1
:102588000CD0D4F89430B3F5807F67D0884A936D27
:1025980023F44073D4F894100B439365236813F421
:1025A800002F0BD0D4F8A030B3F5803F6ED0B3F530
:1025B800003F61D0002B5AD001263546236813F41A
:1025C800802F0CD0D4F88430B3F5001F76D0B3F543
:1025D800401F69D0B3F5801F61D0012635462368B6
:1025E80013F4803F07D0E36C002B70D0B3F5803F25
:1025F8007BD001263546236813F0005F7DD1236820
:1026080013F4003F00F08680E36FB3F5807F00F09D
:10261800C6807CD9B3F5007F03D0B3F5407F40F086
:10262800BC80002D40F0C180614A536D23F4407393
:10263800E16F0B4353656DE0022104F12400FFF7BD
:102648005BFB054665E72E4686E7022104F1240078
:10265800FFF752FB002888D0012686E7022104F103
:102668002400FFF749FB002890D001268EE70021BF
:10267800201DFFF7BBFA05467DB94D4A936D23F43B
:102688004033D4F8A0100B43936597E7022104F177
:102698002400FFF731FB0546EEE72E468EE7444A55
:1026A800D36A43F40033D3627DB9414A536D23F4AE
:1026B8004013D4F884100B43536590E7012104F1CB
:1026C8002400FFF719FB0546EEE72E4687E7384A50
:1026D800D36A43F40033D3626DB9354AD36C23F41B
:1026E8008033E16C0B43D36485E70221201DFFF79B
:1026F8007DFA0546F0E72E467DE7022104F1240025
:10270800FFF7FAFA00283FF47AAF012677E7002BA3
:1027180087D00126236813F4801F06D0244A136D3E
:1027280023F00043216F0B431365236813F0805F88
:1027380007D01F4A136923F48043D4F8B4100B431D
:102748001361236813F4001F06D0194A136D23F090
:102758008073A16E0B431365236813F0804F09D073
:10276800134B1A6922F400421A611A69D4F8B81096
:102778000A431A612368002B1CDB236813F4000F3B
:1027880007D00B4A536D23F44003D4F888100B4349
:10279800536506B101263046F8BD0126BAE7044A5A
:1027A800D36A43F40033D3623BE72E46B2E700BF57
:1027B80000440258034AD36C23F04053216D0B4365
:1027C800D364DAE70044025800283BD038B5044601
:1027D800437AB3B1022363722268136823F020039B
:1027E80061680B4313602268136843F004031360A5
:1027F80023685B6813F0400F07D00423637201203D
:1028080038BD0372FEF73EF9E4E7FEF747FA0546DE
:1028180023685B6813F0040F0FD0FEF73FFA401BE4
:102828000228F5D923685B6813F0040FF0D004235D
:1028380063720223E3600120E2E701236372002050
:10284800E060DDE70120704770B50D4E0D4D761B39
:10285800B61006D0002455F8043B01349847A64228
:10286800F9D1094E094D761B00F0D4F8B61006D000
:10287800002455F8043B01349847A642F9D170BDAD
:10288800482A0008482A0008502A0008482A000850
:10289800830730B548D0541E002A3FD0CAB2034639
:1028A80001E0013C3AD303F8012B9D07F9D1032C31
:1028B8002DD9CDB245EA05250F2C45EA054536D96F
:1028C800A4F1100222F00F0C03F1200EE6444FEAA7
:1028D800121C03F1100242E9045542E90255103274
:1028E8007245F8D10CF1010214F00C0F03EB02123F
:1028F80004F00F0C13D0ACF1040323F003030433EA
:10290800134442F8045B9342FBD10CF003042CB14E
:10291800CAB21C4403F8012B9C42FBD130BD64466B
:102928001346002CF4D1F9E703461446BFE71A46CC
:10293800A446E0E7024B13B1024800F005B870471F
:10294800000000005D290008002301461A461846C9
:1029580000F01AB838B5084B084D5B1B9C1007D01F
:10296800043B1D44013C55F804399847002CF9D123
:10297800BDE8384000F054B8542A0008502A00082E
:10298800704700BF704700BF2DE9F047DFF87CA013
:102998000646DAF8000098460F469146FFF7F0FF22
:1029A8001B4B1B68D3F8484124B365681F2D26DCF0
:1029B8005EB96B1C0235DAF80000636044F82570D4
:1029C800FFF7E0FF0020BDE8F08704EB8501012355
:1029D800C1F88890D4F88821AB401A43022EC4F875
:1029E8008821C1F80881E4D1D4F88C211343C4F8B4
:1029F8008C31DEE703F5A674C3F84841D5E7DAF869
:102A08000000FFF7BFFF4FF0FF30DCE73804002479
:102A1800442A0008F8B500BFF8BC08BC9E467047B9
:0C2A2800F8B500BFF8BC08BC9E46704723
:102A34000000000001020304010203040607080960
:042A4400100000245A
:082A48003D290008BD02000851
:042A500099020008DF
:102A54000090D0030090D00301000000100000009B
:102A640000000000FC02002464030024CC030024C2
:102A74000000000000000000000000000000000052
:102A84000000000000000000000000000000000042
:102A94000000000000000000000000000000000032
:102AA4000000000000000000000000000000000022
:102AB4000000000000000000000000000000000012
:102AC4000000000000000000000000000000000002
:102AD40000000000000000000000000000000000F2
:102AE40000000000000000000000000000000000E2
:102AF40000000000000000000000000000000000D2
:102B040000000000000000000100000000000000C0
:102B14000E33CDAB34126DE6ECDE05000B00000085
:102B240000000000000000000000000000000000A1
:102B34000000000000000000000000000000000091
:102B44000000000000000000000000000000000081
:102B54000000000000000000000000000000000071
:0C2E8400000000000000000070040024AA
:0400000508000B8D57
:00000001FF
