:020000040800F2
:1000000000000824551B0008CD1A0008CF1A00086C
:10001000D11A0008D31A0008D51A00080000000001
:10002000000000000000000000000000D71A0008D7
:10003000D91A000800000000DB1A0008DD1A0008C9
:10004000A51B0008A51B0008A51B0008A51B000890
:10005000A51B0008A51B0008A51B0008A51B000880
:10006000A51B0008A51B0008A51B0008A51B000870
:10007000A51B0008A51B0008A51B0008A51B000860
:10008000A51B0008A51B0008A51B0008A51B000850
:10009000A51B0008A51B0008A51B0008A51B000840
:1000A000A51B0008A51B0008A51B0008A51B000830
:1000B000A51B0008A51B0008A51B0008A51B000820
:1000C000A51B0008A51B0008A51B0008A51B000810
:1000D000A51B0008A51B0008A51B0008A51B000800
:1000E000A51B0008A51B000800000000A51B0008B8
:1000F000A51B0008A51B0008A51B0008A51B0008E0
:10010000A51B0008A51B0008A51B0008A51B0008CF
:10011000A51B0008A51B0008A51B0008A51B0008BF
:10012000A51B0008A51B0008A51B0008A51B0008AF
:10013000A51B0008A51B0008A51B0008A51B00089F
:1001400000000000000000000000000000000000AF
:10015000A51B0008A51B0008A51B0008A51B00087F
:10016000A51B0008A51B0008A51B0008A51B00086F
:10017000A51B0008A51B0008A51B0008A51B00085F
:10018000A51B0008A51B0008A51B0008A51B00084F
:10019000A51B0008A51B0008A51B0008A51B00083F
:1001A000A51B0008A51B0008A51B0008A51B00082F
:1001B000A51B0008A51B0008A51B0008A51B00081F
:1001C000A51B0008A51B0008A51B0008A51B00080F
:1001D000A51B0008A51B0008A51B0008A51B0008FF
:1001E000A51B0008A51B0008A51B0008A51B0008EF
:1001F000A51B0008A51B0008A51B0008A51B0008DF
:10020000A51B0008A51B0008A51B0008A51B0008CE
:10021000A51B0008A51B0008A51B0008A51B0008BE
:10022000A51B0008A51B0008A51B00080000000076
:10023000A51B0008A51B000800000000A51B000866
:10024000A51B0008A51B0008A51B0008A51B00088E
:10025000A51B0008A51B0008A51B0008A51B00087E
:10026000A51B0008A51B0008A51B0008A51B00086E
:10027000A51B0008A51B0008A51B00080000000026
:10028000A51B0008A51B0008A51B00080000000016
:0802900000000000A51B00089E
:1002980010B5054C237833B9044B13B10448AFF3B8
:1002A80000800123237010BD3C04002400000000DE
:1002B800741D000808B5034B1BB103490348AFF38D
:1002C800008008BD0000000040040024741D0008E0
:1002D80080F0004002E000BF81F0004142001FBFF3
:1002E8005FEA410392EA030F7FEA226C7FEA236CFC
:1002F8006AD04FEA1262D2EB1363C1BFD2184140F1
:1003080048404140B8BF5B42192B88BF704710F086
:10031800004F40F4000020F07F4018BF404211F029
:10032800004F41F4000121F07F4118BF494292EA91
:10033800030F3FD0A2F1010241FA03FC10EB0C00BD
:10034800C3F1200301FA03F100F0004302D549424A
:1003580060EB4000B0F5000F13D3B0F1807F06D3F7
:1003680040084FEA310102F10102FE2A51D2B1F1EF
:10037800004F40EBC25008BF20F0010040EA0300E4
:100388007047490040EB0000013A28BFB0F5000F64
:10039800EDD2B0FA80FCACF1080CB2EB0C0200FA1A
:1003A8000CF0AABF00EBC25052421843BCBFD04069
:1003B8001843704792F0000F81F4000106BF80F4E3
:1003C80000000132013BB5E74FEA41037FEA226CA6
:1003D80018BF7FEA236C21D092EA030F04D092F071
:1003E800000F08BF0846704790EA010F1CBF0020A5
:1003F800704712F07F4F04D1400028BF40F0004002
:10040800704712F100723CBF00F50000704700F021
:10041800004343F0FE4040F4000070477FEA226248
:1004280016BF08467FEA23630146420206BF5FEA19
:10043800412390EA010F40F4800070474FF0000319
:1004480004E000BF10F0004348BF40425FEA000CE0
:1004580008BF704743F0964301464FF000001CE088
:1004680050EA010208BF70474FF000030AE000BFDE
:1004780050EA010208BF704711F0004302D540421C
:1004880061EB41015FEA010C02BF8446014600208E
:1004980043F0B64308BFA3F18053A3F50003BCFAA9
:1004A8008CF2083AA3EBC25310DB01FA02FC634456
:1004B80000FA02FCC2F12002BCF1004F20FA02F25D
:1004C80043EB020008BF20F00100704702F1200250
:1004D80001FA02FCC2F1200250EA4C0021FA02F2B1
:1004E80043EB020008BF20EADC7070474FF0FF0CB6
:1004F8001CEAD0521EBF1CEAD15392EA0C0F93EAB1
:100508000C0F6FD01A4480EA010C400218BF5FEA52
:1005180041211ED04FF0006343EA501043EA5111C5
:10052800A0FB01310CF00040B1F5000F3EBF4900BF
:1005380041EAD3715B0040EA010062F17F02FD2AC3
:100548001DD8B3F1004F40EBC25008BF20F00100A6
:10055800704790F0000F0CF0004C08BF49024CEABD
:10056800502040EA51207F3AC2BFD2F1FF0340EA4F
:10057800C250704740F400004FF00003013A5DDCC0
:1005880012F1190FDCBF00F000407047C2F1000201
:10059800410021FA02F1C2F1200200FA02FC5FEAEE
:1005A800310040F1000053EA4C0308BF20EADC7038
:1005B800704792F0000F00F0004C02BF400010F4AA
:1005C800000F013AF9D040EA0C0093F0000F01F057
:1005D800004C02BF490011F4000F013BF9D041EA79
:1005E8000C018FE70CEAD15392EA0C0F18BF93EA7B
:1005F8000C0F0AD030F0004C18BF31F0004CD8D1A5
:1006080080EA010000F00040704790F0000F17BF2B
:1006180090F0004F084691F0000F91F0004F14D071
:1006280092EA0C0F01D142020FD193EA0C0F03D1C9
:100638004B0218BF084608D180EA010000F00040CC
:1006480040F0FE4040F40000704740F0FE4040F4A7
:10065800400070474FF0FF0C1CEAD0521EBF1CEA46
:10066800D15392EA0C0F93EA0C0F69D0A2EB030264
:1006780080EA010C49024FEA402037D04FF08053FE
:1006880043EA111143EA10130CF000408B4238BFC3
:100698005B0042F17D024FF4000C8B4224BF5B1AD1
:1006A80040EA0C00B3EB510F24BFA3EB510340EA1F
:1006B8005C00B3EB910F24BFA3EB910340EA9C00CD
:1006C800B3EBD10F24BFA3EBD10340EADC001B013D
:1006D80018BF5FEA1C1CE0D1FD2A3FF650AF8B42E1
:1006E80040EBC25008BF20F0010070470CF0004CEE
:1006F8004CEA50207F32C2BFD2F1FF0340EAC25019
:10070800704740F400004FF00003013A37E792F0D9
:10071800000F00F0004C02BF400010F4000F013A37
:10072800F9D040EA0C0093F0000F01F0004C02BF32
:10073800490011F4000F013BF9D041EA0C0195E79B
:100748000CEAD15392EA0C0F08D142027FF47DAF34
:1007580093EA0C0F7FF470AF084676E793EA0C0F24
:1007680004D14B023FF44CAF08466EE730F0004C22
:1007780018BF31F0004CCAD130F000427FF45CAFB2
:1007880031F000437FF43CAF5FE700BF42000ED278
:10079800B2F1FE4F0BD34FF09E03B3EB126209D4B4
:1007A8004FEA002343F0004323FA02F070474FF06A
:1007B8000000704712F1610F01D1420202D14FF0DF
:1007C800FF3070474FF00000704700BF104B1B7898
:1007D8000BB90120704710B504464FF47A70B0FB8E
:1007E800F3F30C4A1068B0FBF3F000F0B9F868B9FD
:1007F8000F2C01D901200AE0002221464FF0FF30DA
:1008080000F078F8044B1C60002000E0012010BDC7
:1008180000000024080000240400002410B5032070
:1008280000F056F800F054FD0F498B69C3F3032319
:100838000E4AD35C03F01F03D8408B6903F00F0303
:10084800D35C03F01F0320FA03F3094A1360094B32
:1008580018600020FFF7BAFF10B10124204610BD30
:10086800044601F01DF9F9E7004402588C1D000800
:100878000C00002408000024034B1B78034A11686D
:100888000B441360704700BF000000245804002484
:10089800014B1868704700BF5804002438B5044657
:1008A800FFF7F6FF0546B4F1FF3F02D0044B1B7873
:1008B8001C44FFF7EDFF401BA042FAD338BD00BF30
:1008C80000000024014B1868000C70470010005C01
:1008D8000649CB6823F4E0631B041B0C000200F4F8
:1008E800E0600343024A1A43CA60704700ED00E023
:1008F8000000FA0500B5174BDB68C3F30223C3F108
:10090800070CBCF1040F28BF4FF0040C03F1040ED0
:10091800BEF1060F14D9033B4FF0FF3E0EFA0CFC54
:1009280021EA0C0199400EFA03F322EA0303194362
:10093800002807DB0901C9B2074B19545DF804FB0D
:100948000023E9E700F00F000901C9B2034B19546D
:10095800F4E700BF00ED00E000E400E014ED00E083
:100968000138B0F1807F0BD24FF0E0235861054A7F
:10097800F02182F823100020986107221A6170473D
:100988000120704700ED00E0F0B583B0002340E09F
:10099800092400E00024B44044EA0C040235764EF1
:1009A80046F825404FF0B044D4F88050D44325EAA7
:1009B80002064F6817F4803F01D042EA05064FF05F
:1009C800B045C5F88060D5F8845004EA05064F683C
:1009D80017F4003F01D042EA05064FF0B045C5F8CC
:1009E80084602D6804EA05064F6817F4801F01D05B
:1009F80042EA05064FF0B0452E606D682C404E68FF
:100A080016F4001F01D042EA05044FF0B0425460CA
:100A180001330A6832FA03F400F0AB804FF0010C9E
:100A28000CFA03FC1CEA0202F2D04C68651E112C79
:100A380018BF012D01D9122C13D185685E0003243B
:100A4800B44025EA0405CC68B4402C43846044686B
:100A580024EA0C0C4C68C4F300149C4044EA0C04CF
:100A68004460C6684FEA430C032505FA0CF5EC43CD
:100A780026EA050E8D6805FA0CF545EA0E05C560EF
:100A88004D68122D18BF022D12D1DE08083650F815
:100A9800267003F007054FEA850E0F2505FA0EF5B7
:100AA80027EA05070D6905FA0EF53D4340F826507B
:100AB800056825404C6804F0030404FA0CF42C4340
:100AC80004604C6814F0805FA2D02C4CD4F8F45029
:100AD80045F00205C4F8F450D4F8F44004F00204D8
:100AE8000194019C9D08AE1C234C54F8267003F019
:100AF8000304A6000F24B44027EA040C204CA042AB
:100B08003FF448AF04F58064A04222D004F5806425
:100B1800A04220D004F58064A0421ED004F5806471
:100B2800A0421CD004F58064A0421AD004F5806469
:100B3800A04218D004F58064A04216D004F5806461
:100B4800A04214D004F58064A0423FF421AF0A24E7
:100B580021E701241FE702241DE703241BE70424DF
:100B680019E7052417E7062415E7072413E70824DF
:100B780011E703B0F0BD00BF00040058004402585C
:100B8800000002580AB18161704709048161704709
:100B9800034A936A00F03F0023EA00039362704718
:100BA80000480258094B1A6942F005021A611A698D
:100BB80042F002021A61064A136943F00403136102
:100BC800BFF34F8FBFF36F8F30BF70470048025895
:100BD80000ED00E0134BDB6813F0040F07D1114B55
:100BE800DB6803F0070383421AD00120704710B571
:100BF8000C4AD36823F007031843D060FFF748FE78
:100C08000446084B5B6813F4005F07D1FFF740FE0A
:100C1800001BB0F57A7FF4D9012000E0002010BD58
:100C2800002070470048025810B40368416893FADE
:100C3800A3F2B2FA82F2083202F01F0201FA02F2BB
:100C480043EA020193FAA3F2B2FA82F2083252009E
:100C580002F01E02846804FA02F20A4393FAA3F12E
:100C6800B1FA81F101F01F0C4FF4807101FA0CF117
:100C7800194393FAA3F3B3FA83F35B0003F01E035B
:100C88004FF4403C0CFA03F30B43094CA16A21EAE8
:100C980003031A43A2624FF0B042D2F8903023F017
:100CA800FC53016843EAC153C2F8903010BC704746
:100CB80000480258014B5B6A1840704700480258C8
:100CC800054B1A6A02431A625B6A034201D100208B
:100CD80070470120704700BF00480258002800F004
:100CE800D88238B50446036813F0010F25D09D4A11
:100CF800136903F03803926A102B15D0182B0FD004
:100D08006368B3F5803F3ED0002B52D1954B1A68EB
:100D180022F480321A601A6822F480221A6037E0BE
:100D280002F00302022AEBD18E4B1B6813F4003F3A
:100D380003D06368002B00F0AE82236813F0020F23
:100D480077D0884A1369926A13F038035AD0182B5F
:100D580055D0E368002B00F0B28082490A6822F07F
:100D6800190213430B60FFF793FD05467D4B1B6883
:100D780013F0040F40F08B80FFF78AFD401B022818
:100D8800F4D903208EE2774A136843F48033136062
:100D980063682BB3FFF77CFD0546724B1B6813F4A1
:100DA800003FCAD1FFF774FD401B6428F5D9032022
:100DB80078E2B3F5A02F09D06A4B1A6822F4803282
:100DC8001A601A6822F480221A60E1E7654B1A68F3
:100DD80042F480221A601A6842F480321A60D7E717
:100DE800FFF756FD05465F4B1B6813F4003FA4D080
:100DF800FFF74EFD401B6428F5D9032052E212F09C
:100E0800030FA6D1574B1B6813F0040F03D0E368F8
:100E1800002B00F04282FFF755FD41F20303984290
:100E28002CD8504A536823F47C33216943EA0133B0
:100E38005360236813F0100F70D04A4A136903F007
:100E48003803926A082B52D0182B4CD0E369002B38
:100E580000F0A280434A136843F080031360FFF751
:100E680017FD05463F4B1B6813F4807F7CD1FFF7C5
:100E78000FFD401B0228F5D9032013E2394A5368B5
:100E880023F0FE43216943EA01635360D1E7FFF78A
:100E980019FD41F20303984208D8324A536823F4F3
:100EA8007C33216943EA01335360C2E72D4A536812
:100EB80023F0FE43216943EA01635360B9E7294AF5
:100EC800136823F001031360FFF7E2FC0546254B86
:100ED8001B6813F0040FACD0FFF7DAFC401B0228A4
:100EE800F5D90320DEE102F00302012AAED11D4B41
:100EF8001B6813F4807F03D0E369802B40F0CF8117
:100F0800FFF7E0FC41F20303984222D8154A5368E0
:100F180023F0F843216A43EA81635360236813F09E
:100F2800080F61D06369002B4AD00E4A536F43F013
:100F380001035367FFF7ACFC05460A4B5B6F13F0E0
:100F4800020F51D1FFF7A4FC401B0228F5D903205A
:100F5800A8E1044AD36823F07C53216A43EA016379
:100F6800D360DBE700440258FFF7ACFC41F203030F
:100F7800984208D8814A536823F0F843216A43EA23
:100F880081635360CAE77D4AD36823F07C53216AA2
:100F980043EA0163D360C1E7784A136823F080030A
:100FA8001360FFF775FC0546744B1B6813F4807FCC
:100FB800B4D0FFF76DFC401B0228F5D9032071E17E
:100FC8006E4A536F23F001035367FFF761FC054630
:100FD8006A4B5B6F13F0020F06D0FFF759FC401BFA
:100FE8000228F5D903205DE1236813F0200F29D0EA
:100FF800A3699BB1614A136843F480531360FFF7F8
:1010080047FC05465D4B1B6813F4005F1AD1FFF7D8
:101018003FFC401B0228F5D9032043E1574A1368D7
:1010280023F480531360FFF733FC0546534B1B68CA
:1010380013F4005F06D0FFF72BFC401B0228F5D9FC
:1010480003202FE1236813F0040F21D1636A002BDA
:1010580000F02781494A126902F03802182A00F084
:10106800EF80022B75D0454A136823F08073136014
:10107800FFF70EFC0446414B1B6813F0007F00F09D
:10108800DD80FFF705FC001B0228F4D9032009E1E5
:101098003B4A136843F480731360FFF7F9FB054676
:1010A800374B1B6813F4807F06D1FFF7F1FB401B19
:1010B8006428F5D90320F5E0A368012B0AD00BBBFF
:1010C8002E4B1A6F22F001021A671A6F22F00402DF
:1010D8001A6704E0294A136F43F001031367A368F2
:1010E80033B3FFF7D5FB0546244B1B6F13F0020FF4
:1010F800ACD1FFF7CDFB401B41F288339842F3D9BE
:101108000320CFE0052B09D01C4B1A6F22F00102F7
:101118001A671A6F22F004021A67E0E7174B1A6F72
:1011280042F004021A671A6F42F001021A67D6E702
:10113800FFF7AEFB0546114B1B6F13F0020F85D06E
:10114800FFF7A6FB401B41F288339842F3D90320EE
:10115800A8E00A4A136823F080731360FFF798FB2E
:101168000546064B1B6813F0007F0BD0FFF790FB7A
:10117800401B0228F5D9032094E000BF0044025820
:10118800004802584F4B996A4F4A0A40A16AE06AE0
:1011980041EA00110A439A62226B013AC2F308023B
:1011A800616B0139490289B20A43A16B013909040B
:1011B80001F4FE010A43E16B0139090601F0FE4121
:1011C8000A431A63DA6A22F00102DA62596B3F4A6B
:1011D8000A40A16C42EAC1025A63DA6A22F00C02A0
:1011E800216C0A43DA62DA6A22F00202616C0A436D
:1011F800DA62DA6A42F48032DA62DA6A42F4003297
:10120800DA62DA6A42F48022DA62DA6A42F00102C9
:10121800DA621A6842F080721A60FFF739FB0446F6
:10122800284B1B6813F0007F06D1FFF731FB001B2A
:101238000228F5D9032035E0002033E0002031E012
:10124800204A916A106B012B2DD001F00303A26A8A
:1012580093422AD1C1F30511E36A994227D1C0F319
:101268000802236B013B9A4223D1C0F34622636BE9
:10127800013B9A421FD1C0F30642A36B013B9A423D
:101288001BD1C0F30660E36B013B984217D10020E5
:1012980008E001207047012004E0012002E001205D
:1012A80000E0002038BD0120FCE70120FAE701201A
:1012B800F8E70120F6E70120F4E70120F2E7012032
:1012C800F0E700BF004402580CFCFFFF0700FFFFD7
:1012D800F8B57E4B1B6903F03803102B00F0F28041
:1012E800182B10D013B17A4C2046F8BD774B1B68E9
:1012F80013F0200F00F0E880744B1868C0F3C100A9
:10130800744CC440F0E7714B9D6A05F003059C6A74
:10131800C4F30514D86A00F001005B6BC3F3CC0377
:1013280003FB00F0FFF78AF80646002CDCD0012DFD
:1013380076D0022D00F0A4800DB32046FFF77EF88A
:1013480001466548FFF786F90446604B186BC0F301
:101358000800FFF773F805464FF064513046FFF771
:10136800C5F801462846FEF7B9FF4FF07E51FEF753
:10137800B5FF01462046FFF7B9F8044671E0534B24
:101388001B6813F0200F29D0504F3B68C3F3C103EB
:101398005048D840FFF752F805462046FFF74EF868
:1013A80001462846FFF756F90446386BC0F3080093
:1013B800FFF744F805464FF064513046FFF796F8BA
:1013C80001462846FEF78AFF4FF07E51FEF786FF5A
:1013D80001462046FFF78AF8044642E02046FFF718
:1013E8002DF801463D48FFF735F90446374B186B91
:1013F800C0F30800FFF722F805464FF06451304665
:10140800FFF774F801462846FEF768FF4FF07E5153
:10141800FEF764FF01462046FFF768F8044620E01F
:101428002046FFF70BF801462B48FFF713F904464F
:10143800264B186BC0F30800FFF700F805464FF07D
:1014480064513046FFF752F801462846FEF746FF3A
:101458004FF07E51FEF742FF01462046FFF746F85F
:1014680004461A4B1B6BC3F34623581CFEF7E6FFD2
:1014780001462046FFF7EEF8FFF788F9044633E700
:101488002046FEF7DBFF01461548FFF7E3F8044660
:101498000E4B186BC0F30800FEF7D0FF05464FF05F
:1014A80064513046FFF722F801462846FEF716FF3A
:1014B8004FF07E51FEF712FF01462046FFF716F85F
:1014C8000446CEE7074C0FE7024C0DE700440258EC
:1014D80000093D000090D0030024744A0024744C95
:1014E80020BCBE4B40787D01002800F0328170B5E9
:1014F8000D4604469B4B1B6803F00F038B420BD22F
:10150800984A136823F00F030B431360136803F022
:101518000F038B4240F01F81236813F0040F0CD097
:101528002269914B9B6903F070039A4205D98E4951
:101538008B6923F070031A438A61236813F0080F3C
:101548000CD06269884BDB6903F070039A4205D9B5
:101558008549CB6923F070031A43CA61236813F0E5
:10156800100F0CD0A269804BDB6903F4E0639A4248
:1015780005D97D49CB6923F4E0631A43CA6123681E
:1015880013F0200F0CD0E269774B1B6A03F070034D
:101598009A4205D974490B6A23F070031A430A6208
:1015A800236813F0020F0CD0E2686F4B9B6903F0BD
:1015B8000F039A4205D96C498B6923F00F031A432C
:1015C8008A61236813F0010F41D0674A936923F4B5
:1015D8007063A1680B4393616368022B0AD0032BE5
:1015E80027D0012B2CD0604A126812F0040F06D1C4
:1015F8000120ADE0126812F4003F00F0AE805A49B5
:101608000A6922F0070213430B61FFF741F9064606
:10161800554B1B6903F038036268B3EBC20F16D051
:10162800FFF736F9801B41F288339842F0D903203E
:101638008EE04D4A126812F0007FE0D1012087E069
:10164800494A126812F4807FD9D1012080E02368CA
:1016580013F0020F0CD0E268434B9B6903F00F03B1
:101668009A4205D240498B6923F00F031A438A61D5
:101678003C4B1B6803F00F03AB420AD9394A136885
:1016880023F00F032B431360136803F00F03AB42DF
:1016980065D1236813F0040F0CD02269324B9B6983
:1016A80003F070039A4205D22F498B6923F0700327
:1016B8001A438A61236813F0080F0CD062692A4B19
:1016C800DB6903F070039A4205D22749CB6923F0FE
:1016D80070031A43CA61236813F0100F0CD0A26973
:1016E800214BDB6903F4E0639A4205D21E49CB69BA
:1016F80023F4E0631A43CA61236813F0200F0CD067
:10170800E269194B1B6A03F070039A4205D2164925
:101718000B6A23F070031A430A62FFF7D9FD1249D6
:101728008B69C3F30323114AD35C03F01F03D8402A
:101738008B6903F00F03D35C03F01F0320FA03F354
:101748000B4A13600B4B18600B4B1868FFF73EF8F9
:1017580070BD012070470120FAE70120F8E7012059
:10176800F6E700BF00200052004402588C1D000814
:101778000C000024080000240400002470B58CB07C
:1017880000240794089409940A940B94434BD3F8C3
:10179800E02042F01002C3F8E020D3F8E02002F085
:1017A80010020192019AD3F8E02042F00402C3F833
:1017B800E020D3F8E02002F004020292029AD3F863
:1017C800E02042F08002C3F8E020D3F8E02002F0E5
:1017D80080020392039AD3F8E02042F00102C3F892
:1017E800E020D3F8E02002F001020492049AD3F832
:1017F800E02042F00202C3F8E020D3F8E02002F033
:1018080002020592059AD3F8E02042F00802C3F8D4
:10181800E020D3F8E03003F008030693069B204E3F
:10182800224608213046FFF7ADF94FF6F7730793C4
:1018380003250895099407A93046FFF7A5F808235A
:1018480007930123089309940A9407A93046FFF7E0
:101858009BF843F6FF7307930895099407A9114865
:10186800FFF792F849F6FF7307930895099407A9BB
:101878000D48FFF789F84FF6FF7607960895099403
:1018880007A90A48FFF780F807960895099407A959
:101898000748FFF779F80CB070BD00BF0044025844
:1018A80000100258000802580000025800040258AC
:1018B800000C025870B505460C46094E0122082155
:1018C8003046FFF75FF9681EFEF7E8FF002208219F
:1018D8003046FFF757F9601EFEF7E0FF70BD00BF06
:1018E8000010025870B59CB04C22002109A800F0E5
:1018F8007BF92022002101A800F076F90220FFF7E9
:1019080069F900230093204BDA6A22F00102DA62B7
:10191800DB6A03F0010300931C4A936923F44043F4
:1019280043F400439361936903F440430093009B9D
:10193800164B9B6913F4005FFAD0012509954FF403
:1019480080330A9302231293139305221492602280
:1019580015921693179318930826199600241A942B
:101968001B9409A8FFF7BAF93F23019303230293B5
:10197800039404960594069407940894294601A8AC
:10198800FFF7B2FD1CB070BD0004005800480258B3
:1019980000B585B0FEF742FFFFF7A4FFFFF7EEFEA4
:1019A8003D4BD3F8D03013F0807F1BD13A4BD3F89E
:1019B800D03013F4000F4CD1374BD3F8D03013F498
:1019C800800F14D0C8214FF4FA70FFF773FFC821B5
:1019D8004FF4FA70FFF76EFFC8214FF4FA70FFF763
:1019E80069FF04E0C8214FF4FA70FFF763FF2A4A41
:1019F800D2F8D03043F48033C2F8D030274B1B697B
:101A080013F0400F30D10820FFF754F900283AD1DD
:101A18000820FFF7BDF80820FFF752F908240194C1
:101A2800012302930223039301A8FFF7FDF8204640
:101A3800FFF746F9FFF7B6F8FA210220FFF73AFF59
:101A48004FF47A70FEF72AFFFA210220FFF732FFDF
:101A5800F2E7C8214FF4FA70FFF72CFFC8214FF4C2
:101A6800FA70FFF727FFC2E702F58062136943F4B3
:101A780000731361FA210A20FFF71CFFFA210A20DC
:101A8800FFF718FFBFE7FA210846FFF713FFFA210F
:101A98000846FFF70FFFBBE700440258004802580A
:101AA80082B0074BD3F8F42042F00202C3F8F420C6
:101AB800D3F8F43003F002030193019B02B070479E
:101AC800004402587047FEE7FEE7FEE7FEE770476E
:101AD8007047704708B5FEF7CFFE08BD154B1A686A
:101AE80042F001021A6000221A6118681249014086
:101AF80019609A61DA611A629A62DA621A635A6341
:101B08009A63DA631A645A64196821F480211960A7
:101B18001A660A4B1A680A4B1340B3F1005F03D2E6
:101B2800084B0122C3F80821074B4FF000629A6066
:101B3800704700BF004402587FEDF6EA0010005CD1
:101B48000000FFFF0080005100ED00E0DFF834D016
:101B5800002103E00C4B5B58435004310B480C4BFD
:101B680042189A42F6D30B4A02E0002342F8043B9B
:101B7800094B9A42F9D3FFF7B1FF00F011F8FFF7CC
:101B880007FF704700000824AC1D0008000000246F
:101B98003C0400243C04002460040024FEE7000008
:101BA80070B50D4E0D4D761BB61006D0002455F8B5
:101BB800043B01349847A642F9D1094E094D761BDA
:101BC80000F0D4F8B61006D0002455F8043B0134D0
:101BD8009847A642F9D170BDA01D0008A01D0008B5
:101BE800A81D0008A01D0008830730B548D0541E62
:101BF800002A3FD0CAB2034601E0013C3AD303F8B9
:101C0800012B9D07F9D1032C2DD9CDB245EA052525
:101C18000F2C45EA054536D9A4F1100222F00F0C25
:101C280003F1200EE6444FEA121C03F1100242E9C8
:101C3800045542E9025510327245F8D10CF10102FF
:101C480014F00C0F03EB021204F00F0C13D0ACF1DC
:101C5800040323F003030433134442F8045B934260
:101C6800FBD10CF003042CB1CAB21C4403F8012BBD
:101C78009C42FBD130BD64461346002CF4D1F9E7F1
:101C880003461446BFE71A46A446E0E7024B13B1E1
:101C9800024800F005B8704700000000B51C0008B5
:101CA800002301461A46184600F01AB838B5084B02
:101CB800084D5B1B9C1007D0043B1D44013C55F8A4
:101CC80004399847002CF9D1BDE8384000F054B8E1
:101CD800AC1D0008A81D0008704700BF704700BF72
:101CE8002DE9F047DFF87CA00646DAF800009846B0
:101CF8000F469146FFF7F0FF1B4B1B68D3F848418E
:101D080024B365681F2D26DC5EB96B1C0235DAF832
:101D18000000636044F82570FFF7E0FF0020BDE88D
:101D2800F08704EB85010123C1F88890D4F8882155
:101D3800AB401A43022EC4F88821C1F80881E4D1C7
:101D4800D4F88C211343C4F88C31DEE703F5A6746C
:101D5800C3F84841D5E7DAF80000FFF7BFFF4FF0B6
:101D6800FF30DCE7380400249C1D0008F8B500BFEC
:101D7800F8BC08BC9E467047F8B500BFF8BC08BC64
:041D88009E467047BC
:101D8C000000000001020304010203040607080915
:041D9C00100000240F
:081DA000951C0008BD020008BB
:041DA8009902000894
:101DAC0001000000100000000090D0030090D00350
:101DBC0000000000FC02002464030024CC03002477
:101DCC000000000000000000000000000000000007
:101DDC0000000000000000000000000000000000F7
:101DEC0000000000000000000000000000000000E7
:101DFC0000000000000000000000000000000000D7
:101E0C0000000000000000000000000000000000C6
:101E1C0000000000000000000000000000000000B6
:101E2C0000000000000000000000000000000000A6
:101E3C000000000000000000000000000000000096
:101E4C000000000000000000000000000000000086
:101E5C000000000000000000010000000000000075
:101E6C000E33CDAB34126DE6ECDE05000B0000003A
:101E7C000000000000000000000000000000000056
:101E8C000000000000000000000000000000000046
:101E9C000000000000000000000000000000000036
:101EAC000000000000000000000000000000000026
:0C21DC0000000000000000005C04002473
:0400000508001B557F
:00000001FF
