:020000040800F2
:10000000480D0024510300088739000851310008C9
:1000100085390008F50900088D4F00080000000030
:10002000000000000000000000000000454A000839
:10003000810A00080000000089390008474A0008CA
:100040006B0300086B0300086B0300086B030008D8
:100050006B0300086B0300086B0300086B030008C8
:100060006B0300086B0300086B0300086B030008B8
:100070006B0300086B0300086B0300086B030008A8
:100080006B0300086B0300086B0300086B03000898
:100090006B0300086B0300086B0300086B03000888
:1000A0006B0300086B0300086B0300086B03000878
:1000B0006B0300086B0300086B0300086B03000868
:1000C0006B0300086B0300086B0300086B03000858
:1000D0006B0300086B0300086B0300086B03000848
:1000E0006B0300086B030008000000006B030008AE
:1000F0006B0300086B0300086B0300086B03000828
:100100006B0300086B0300086B0300086B03000817
:100110006B0300086B0300086B0300086B03000807
:100120006B0300086B0300086B0300086B030008F7
:100130006B0300086B0300086B0300086B030008E7
:1001400000000000000000000000000000000000AF
:100150006B0300086B0300086B0300086B030008C7
:100160006B0300086B0300086B0300086B030008B7
:100170006B0300086B0300086B0300086B030008A7
:100180006B0300086B0300086B0300086B03000897
:100190006B0300086B0300086B0300086B03000887
:1001A0006B0300086B0300086B0300086B03000877
:1001B0006B0300086B0300086B0300086B03000867
:1001C0006B0300086B0300086B0300086B03000857
:1001D0006B0300086B0300086B0300086B03000847
:1001E0006B0300086B0300086B0300086B03000837
:1001F0006B0300086B0300086B0300086B03000827
:100200006B0300086B0300086B0300086B03000816
:100210006B0300086B0300086B0300086B03000806
:100220006B0300086B0300086B030008000000006C
:100230006B0300086B030008000000006B0300085C
:100240006B0300086B0300086B0300086B030008D6
:100250006B0300086B0300086B0300086B030008C6
:100260006B0300086B0300086B0300086B030008B6
:100270006B0300086B0300086B030008000000001C
:100280006B0300086B0300086B030008000000000C
:10029000000000006B03000800F002F800F048F8CE
:1002A0000AA090E8000C82448344AAF10107DA45D1
:1002B00001D100F03DF8AFF2090EBAE80F0013F0DB
:1002C000010F18BFFB1A43F00103184780BE00005E
:1002D000A0BE0000103A24BF78C878C1FAD85207EF
:1002E00024BF30C830C144BF04680C6070470000B0
:1002F0000023002400250026103A28BF78C1FBD82F
:10030000520728BF30C148BF0B607047642900F016
:10031000D180782900F00A81002070471FB504F0D1
:1003200095FF9DE8030000F00FFA1FBD10B510BD4A
:1003300000F0DEFA1146FFF7F1FF04F007FF00F0CE
:10034000FCFA03B4FFF7F2FF03BC00F02DFB000042
:100350000948804709480047FEE7FEE7FEE7FEE759
:10036000FEE7FEE7FEE7FEE7FEE7FEE70448054995
:10037000054A064B70470000014B0008990200082F
:1003800048070024480D0024480900244809002497
:1003900070B5064600F0BCF9056806F10B0020F0C8
:1003A0000704B4429CBF002070BD2B466A68BAB1F6
:1003B0001068A04210D304F1080188423CBF506885
:1003C000586007D35168101941601168091B01601A
:1003D00058601460101D70BD13465268002AE7D1A2
:1003E0002146284600F09CF90028DED170BD70B58A
:1003F0000446051F00F08CF90068002C14BF446807
:1004000070BD002C18BFAC423CBF20466468F8D3D6
:1004100001680A18AA4218BF456003D12A68054638
:100420001144016028684119A1421CBF6C6070BD75
:100430006168696021680844286070BD0FB41CB50C
:10044000074B06AA7B4469460090059800F011FA14
:100450000020694600F020FA1CBC5DF814FB000087
:100460005104000070B5044685690068C10601D5D5
:10047000302600E02026C00707D070BDD4E9012156
:1004800030469047206A401C20626D1EF6D570BD34
:1004900070B5044685690078C00707D170BDD4E9FE
:1004A000012120209047206A401C20626D1EF6D555
:1004B00070BD00002DE9F041064600241068752942
:1004C000314616A510D0AFF30080002802DA404272
:1004D00013A507E031688A0701D512A502E0490794
:1004E00004D511A5012401E0AFF3008000210A2208
:1004F00006F1240709E0B0FBF2FCB0FBF2F302FBCB
:100500001C00303078541846491C0028F3D123468B
:100510002A463046BDE8F04100F04CB9000000002A
:100520002D0000002B0000002000000070B50446E4
:100530000D4621461068AFF300802188090502D5D9
:100540000F4A7A4402E00E4A7A440E32002104F146
:10055000240305E000F00F060009965D5E54491C77
:100560000028F7D120780023000704D5702D02D091
:1005700009B1022311322046BDE8704000F01AB9DB
:10058000CDBB00002DE9F05F894604464FF0000A1C
:10059000DFF824B1FB44C0F820A02046E16888477A
:1005A00000287DD0252806D0D4E901219047206A73
:1005B000401C2062F1E700255F462046E16888473D
:1005C0002028064607DB312E05D2B81910F8200C7A
:1005D00008B10543F1E7A80701D525F00405C4F8E3
:1005E0001CA00027C4F818A02A2E09D0304604F019
:1005F000DFFC38B304EB8708303EC8F8186019E018
:1006000059F8041B204604EB87029161E168884792
:10061000012F064618D1E069002820DA25F02005D0
:100620001DE0D8F8180000EB800006EB40003038E1
:10063000C8F818002046E1688847064604F0B8FC70
:100640000028EED1012F0AD02E2E08D12046E168D5
:1006500088477F1C0646022F45F02005C4DBA069B1
:10066000002803DA404245F00105A061E80701D007
:1006700025F01005A6B1A6F14100192802D82036B0
:1006800045F400654A463146204625604D46FFF751
:100690003DFE60B1012807D0ED1D25F0070000E008
:1006A00007E000F1080978E705F1040975E730462D
:1006B0007AE7206ABDE8F09FA3BB00004FF000027C
:1006C00000B5134694469646203922BFA0E80C5048
:1006D000A0E80C50B1F12001BFF4F7AF090728BF23
:1006E000A0E80C5048BF0CC05DF804EB890028BF9F
:1006F00040F8042B08BF704748BF20F8022B11F0C8
:10070000804F18BF00F8012B704770477047704743
:1007100000487047F00600247047704770477047E4
:1007200038B504460A4600206946AFF30080002829
:1007300008BF38BD02460099204600F0B7F80120F6
:1007400038BD012000F0CCB8F8B5AFF30080054605
:1007500000200C46102000BF0646A819A0420DD963
:10076000324669460020AFF30080070008BF00F062
:10077000B7F80098A04218BF0546C419FFF7C8FF94
:1007800005600746F01D20F007004619284600F0D6
:100790000AF8B44208BFF8BDA21B31463868BDE86C
:1007A000F84000F083B800210160C0E901107047F3
:1007B000102070472DE9F0470D46994692460446B1
:1007C00000F124080168880604D5E06921F01001D1
:1007D000216000E00120A84201DD471B00E0002766
:1007E000A1697A1902EB0900081AA0612078C006F5
:1007F00002D42046FFF736FE002608E0D4E90121A6
:100800001AF806009047206A401C761C20624E456C
:10081000F4DB2078C0060AD52046FFF723FE06E069
:10082000D4E9012130209047206A401C2062381E04
:10083000A7F10107F4DC07E0D4E9012118F805006D
:100840009047206A401C2062281EA5F10105F3DCB8
:100850002046FFF71DFE2078000602D50220BDE8E5
:10086000F0870120FBE7000001694A1C026108785B
:10087000704700B58FB0CDE90131002105910549E0
:100880007944CDE9031011466846FFF77BFE0FB0AF
:1008900000BD0000E5FFFFFF0A6802F8010B0A60D7
:1008A0007047000000487047E8060024034640688F
:1008B0008C46002818BF88423CBF03464068F8D3E6
:1008C00018681844884207D00CF1030020F0070094
:1008D000001D411A521A0146081D0A60FFF787BD24
:1008E00010B500F039F8BDE8104000F02FB870479F
:1008F0007546FFF7D7FFAE4605006946534620F020
:100900000700854618B020B5FFF730FDBDE8204050
:100910004FF000064FF000074FF000084FF0000BBB
:1009200021F00701AC46ACE8C009ACE8C009ACE86E
:10093000C009ACE8C0098D46704710B50446AFF356
:1009400000802046BDE81040FFF7FBBC002801D026
:1009500000F02AB87047000010B5012805D000212A
:1009600003A000F027F8012010BD09A1F8E700005E
:1009700053494752544D454D3A204F7574206F6688
:100980002068656170206D656D6F727900000000F0
:100990003A2048656170206D656D6F727920636FD4
:1009A000727275707465640001491820ABBEFEE771
:1009B0002600020070B505460C460A2000E06D1CBA
:1009C00000F011F835B128780028F8D102E0641C55
:1009D00000F009F814B120780028F8D1BDE8704083
:1009E0000A20AFF3008008B569468DF800000320A7
:1009F000ABBE08BDFEE700001F4B0020F0B5196834
:100A0000890311D4BFF34F8FBFF36F8F1B49086069
:100A1000BFF34F8FBFF36F8F196841F40031196036
:100A2000BFF34F8FBFF36F8F1968C90323D41249E7
:100A300070310860BFF34F8F081F43F6FF740068E2
:100A40000E4D1035C0F34E31C0F3C90204EA411611
:100A5000104600BF46EA80772F60401EFAD2491E3A
:100A6000F4D2BFF34F8F186840F480301860BFF3A2
:100A70004F8FBFF36F8FF0BD14ED00E050EF00E03B
:100A800070474FF4FA70014602F0BABD70B50446E3
:100A900000F03EF90546601C02D00448007804448A
:100AA00000F036F9401BA042FAD370BD9400002438
:100AB0002DE9FC4F01257E4C00234FF0030A4FF037
:100AC000B04E4FF00F0BEBE005FA03F637403A005B
:100AD00077D04F68012F05D0022F03D0112F01D0FE
:100AE000122F1AD187684FEA4308D1F80CC00AFACE
:100AF00008F927EA09070CFA08FC4CEA070CC0F8C9
:100B000008C0476891F804C0B743CCF3001C0CFA46
:100B100003FC4CEA070CC0F804C0C6684FEA430C5B
:100B2000D1F80880E1460AFA0CF7BE43019708FAAB
:100B300009F848EA0608C0F80C804E68022E01D079
:100B4000122E12D1DE084FEA437C00EB8606009697
:100B50000F69366A4FEADC6C0BFA0CF807FA0CF7EF
:100B600026EA08063743009E37620E790768DDF8EB
:100B700004C006F0030606FA09F627EA0C073E430E
:100B800006604E68F6001CD54A4E376847F00207EB
:100B9000376036689F0706F00206009623F00306CA
:100BA00006F1B046B1463F0FD6F80864DFF8088179
:100BB0000BFA07FC404526EA0C0603D14FF0000C67
:100BC00041E06CE0DFF8F4C0604502D14FF0010C69
:100BD00039E0DFF8ECC0604502D14FF0020C32E0A2
:100BE000DFF8E0C0604502D14FF0030C2BE0DFF8E6
:100BF000D8C0604502D14FF0040C24E0DFF8CCC02F
:100C0000604502D14FF0050C1DE0DFF8C4C060451F
:100C100002D14FF0060C16E0DFF8B8C0604502D1F3
:100C20004FF0070C0FE0DFF8B0C0604502D14FF085
:100C3000080C08E0DFF8A4C0604502D14FF0090CB1
:100C400001E04FF00A0C0CFA07FC4CEA060CC9F85C
:100C500008C426684F6826EA0206FF0300D516433B
:100C6000266066684F6826EA0206BF0300D5164371
:100C70006660D1F804C07646DEF800705FEACC2CDE
:100C800027EA020700D517433760D1F804C0776818
:100C90005FEA8C2C27EA020700D5174377605B1CBC
:100CA0000A681746DA407FF40FAFBDE8FC8F0000FA
:100CB00080000058F4440258000002580004025812
:100CC00000080258000C0258001002580014025884
:100CD00000180258001C0258002002580024025834
:100CE0000069084000D0012070470AB18161704757
:100CF0000904FBE702480068C0F30B0070470000DE
:100D00000010005C01480068000C70470010005C97
:100D10000148806870470000940000240248816800
:100D2000027811448160704794000024032010B5BC
:100D300000F0C6F800F0A0FE0F4A104914681368CE
:100D4000C4F3032203F00F038A5CC95C02F01F02A4
:100D500001F01F01D0400A4A20FA01F1116009494F
:100D60000860002000F010F808B1012010BD00F06C
:100D700079F8002010BD00001844025803C1000893
:100D8000A4000024A000002470B50D4D044628786E
:100D9000A0B14FF47A71B1FBF0F00A490968B1FBD8
:100DA000F0F001F0C6FF48B9102C07D2002221460E
:100DB000501E00F065F800206C6070BD012070BD11
:100DC00094000024A0000024F0B5154C4378211DA8
:100DD0000A1D23600378F3B143680B60057BC67A74
:100DE000817A437B2D07847B45EA0665C77B90F8B3
:100DF00009C0067A90F800E045EAC14040EA834025
:100E000040EA444040EA074040EA0C2040EA4600FD
:100E100040EA0E0001E0002008601060F0BD000014
:100E200098ED00E0BFF35F8F044800210368034A98
:100E300023F48033036070321160704724ED00E0CA
:100E4000074A40F00100064970321060086840F41B
:100E500080300860BFF34F8FBFF36F8F7047000083
:100E600024ED00E0054808B5016841F00201016089
:100E7000006800F00200009008BD0000F444025831
:100E80000E4BF0B41B680D46C3F30223C3F10706F3
:100E9000042E00D90426191D072901D2002300E0E1
:100EA000DB1E012404FA06F19C40491E2940641E01
:100EB000994014402143F0BC04F069B80CED00E007
:100EC000064900F0070210B54FF6FF040868044B0E
:100ED000204040EA02201843086010BD0CED00E0FD
:100EE0000000FA05134970B50A68D243520705D5C8
:100EF000096801F00701814213D118E00A6822F065
:100F0000070202430A60FFF703FF0A4D4FF47A76A7
:100F10000446083D07E000BFFFF7FAFE001BB042A1
:100F200001D9012070BD2868C0438004F4D400209A
:100F300070BD00000C4802580248016841F48071FD
:100F400001607047004802582DE9FC5F044650F8E4
:100F5000241B002500902E460801FE4FDFF8F88381
:100F60001DD5606E50B1B0F5801F0CD0B0F5001FDC
:100F70000ED0B0F5401F1DD001250FE0386840F4B9
:100F80000030386016E00221201D02F0FFFC03E073
:100F90000098022102F08AFD05000BD02E46208821
:100FA000C00523D5606D05281ED2DFE800F00C11C6
:100FB000161B1B00626ED8F8001021F4401111437B
:100FC000C8F80010EBE7386840F40030386009E0FA
:100FD0000021201D02F0DAFC03E00098002102F05D
:100FE00065FD05466DB100E001252E46208880058F
:100FF00028D5A06D80281ED00CDC90B140280ED1E1
:1010000014E0626DD8F8001021F007011143C8F810
:101010000010EBE7C02813D0B0F5807F10D0012579
:101020000FE0386840F40030386009E00021201DEE
:1010300002F0ACFC03E00098002102F037FD054609
:1010400095B12E462088DFF81093400509F1080974
:101050002CD5D4F8A400B0F5800F20D00DDCA0B1C1
:10106000B0F5001F0FD115E0A26DD8F8001021F4E3
:10107000E0711143C8F80010E4E7B0F5C00F13D0D9
:10108000B0F5000F10D001250FE0386840F40030B3
:10109000386009E00021201D02F078FC03E0009890
:1010A000002102F003FD054675B12E46208800059B
:1010B0002DD5D4F8A800B0F1007F21D00EDCA8B166
:1010C000B0F1807F10D116E0D4F8A420D9F8001038
:1010D00021F460011143C9F80010E7E7B0F1407F47
:1010E00013D0B0F1806F10D001250FE0386840F4C4
:1010F0000030386009E00021201D02F047FC03E0C9
:101100000098002102F0D2FC05466DB12E46206801
:1011100080011FD5A06CD8B110280FD0202812D084
:10112000302815D0012514E0D4F8A820D9F80010F3
:1011300021F0E0611143C9F80010E8E7386840F495
:101140000030386004E00221201D02F01FFC05463B
:101150006DB12E462088C0042BD5E06DB0F5005F40
:1011600020D00DDCA0B1B0F5805F0FD115E07A483A
:10117000A26C001F016821F0300111430160E9E712
:10118000B0F5405F13D0B0F5804F10D001250FE0CF
:10119000386840F40030386009E00021201D02F07A
:1011A000F5FB03E00098002102F080FC054685B1C4
:1011B0002E462088800429D5206EB0F5403F23D0EC
:1011C00010DC08B3B0F5803F14D0B0F5003F0FD16C
:1011D00015E0E26DD8F8001021F4E0411143C8F8A1
:1011E0000010E6E7B0F5802F0ED0B0F5A02F0BD0A1
:1011F00001250AE00121201D02F0C8FB03E0009850
:10120000012102F053FC05468DB12E462088400492
:101210002AD5D4F8AC00B0F1405F23D010DC08B37D
:10122000B0F1805F14D0B0F1005F0FD115E0226EF5
:10123000D8F8001021F4E0211143C8F80010E5E7C8
:10124000B0F1804F0ED0B0F1A04F0BD001250AE0D5
:101250000121201D02F09AFB03E00098012102F019
:1012600025FC05466DB12E46208800041FD5E06E92
:10127000D8B1B0F1805F0ED0B0F1005F10D0012581
:1012800014E0D4F8AC20D9F8001021F0E04111436B
:10129000C9F80010E8E7386840F40030386004E02E
:1012A0000121201D02F072FB05466DB12E4620681B
:1012B000C0011ED5606CD0B101280ED0022811D01B
:1012C000032814D0012513E0E26ED8F8001021F0B5
:1012D00040511143C8F80010E9E7386840F4003085
:1012E000386004E00221201D02F050FB054685B164
:1012F0002E462068DFF85CB04002ABF11C0B57D5DE
:101300001648016841F480710160FFF701FD8246D3
:101310000EE01148626C001F016821F003011143C7
:101320000160E6E7FFF7F4FCA0EB0A0064283DD873
:101330000A480068C005F5D57DBBDFF81CA0B4F8ED
:10134000B0200AF1200ADAF8001002F4407001F42B
:10135000407105E02C44025850440258004802589D
:10136000814211D0DAF80010DAF8002021F440713F
:1013700042F48032CAF80020DAF8002022F48032E9
:10138000CAF80020CAF80010D4F8B000B0F5807F89
:1013900021D1FFF7BDFC019019E008E0FFF7B8FC90
:1013A0000199411A41F28830814210D903252E4615
:1013B0002078DFF844A4C0073DD0A06F182838D0AB
:1013C00026DC80B3082829D0102825D12CE0DAF8B3
:1013D00000008007E2D5D4F8B010C1F30120032843
:1013E00058460DD0016821F47C510160B4F8B0205A
:1013F000DAF80010C2F30B021143CAF80010D7E765
:10140000FE4A036802EA111223F47C511143ECE70F
:1014100020280ED028280CD001250BE00121201D0A
:1014200002F0B4FA04E004E00098012102F03EFB6F
:1014300005465DB12E46207880071ED5606F0628D0
:1014400019D2DFE800F0160C11161616A26FDAF8A2
:10145000001021F038011143CAF80010EBE7012118
:10146000201D02F093FA03E00098012102F01EFB18
:10147000054675B100E001252E46207840071FD5AE
:10148000D4F89000062819D2DFE800F0160C1116E7
:101490001616626FDAF8001021F007011143CAF83E
:1014A0000010EAE70121201D02F070FA03E0009825
:1014B000012102F0FBFA05469DB100E001252E4610
:1014C000207880062BD5D4F88C00B0F1405F24D072
:1014D00011DC10B3B0F1805F15D0B0F1005F10D116
:1014E00016E0D4F89020D9F8001021F0070111433C
:1014F000C9F80010E4E7B0F1804F0ED0B0F1A04F72
:101500000BD001250AE00021201D02F03FFA03E084
:101510000098022102F0CAFA05468DB12E462078C5
:1015200040062BD5D4F89800B0F5406F24D011DCDC
:1015300010B3B0F5806F15D0B0F5006F10D116E084
:10154000D4F88C20DAF8001021F0E0411143CAF8F9
:101550000010E4E7B0F5805F0ED0B0F5A05F0BD0CF
:1015600001250AE00021201D02F010FA03E0009896
:10157000022102F09BFA05468DB12E462078000626
:101580002BD5D4F89C00B0F5C04F24D011DC10B39B
:10159000B0F5005F15D0B0F5804F10D116E0D4F84B
:1015A0009820D9F8001021F4E0511143C9F8001037
:1015B000E4E7B0F5004F0ED0B0F5204F0BD0012579
:1015C0000AE00021201D02F0E1F903E00098022169
:1015D00002F06CFA05464DB12E46207800071ED564
:1015E000D4F88000B0F5805F0AD00FE0D4F89C20DA
:1015F000D9F8001021F460411143C9F80010ECE75C
:101600000098022102F052FA00B10126D4F880209D
:10161000DAF8001021F440511143CAF80010207884
:10162000C00613D5D4F89400B0F5807F05D100989A
:10163000022102F03BFA00B10126D4F89420D9F837
:10164000001021F440711143C9F800102068000314
:1016500016D5D4F8A00038B1B0F5803F09D0B0F568
:10166000003F0BD001250AE00021201D02F08EF979
:1016700003E00098022102F019FA054685B12E46D2
:101680002068400322D5D4F88400B0F5801F11D023
:10169000B0F5001F13D0B0F5401F15D0012514E0A0
:1016A000D4F8A020D9F8001021F440311143C9F832
:1016B0000010E5E7386840F40030386004E0009836
:1016C000012102F0F3F9054655B12E462068C0030A
:1016D0001CD5E06C70B1B0F5803F10D0012514E04E
:1016E000D4F88420DAF8001021F440111143CAF82C
:1016F0000010EBE7386840F40030386004E0022165
:10170000201D02F043F90546CDB12E462068800029
:1017100005D50098022102F0C9F900B10126206820
:1017200080031BD5E06FB8B1B0F5807F10D0B0F565
:10173000007F11D0B0F5407F0ED001250DE02E487E
:10174000E26C0838016821F4803111430160DDE763
:10175000386840F400303860F5B32E462068C00287
:1017600007D5226FD8F8001021F000411143C8F8C6
:1017700000102068C00008D5D4F8B420DBF80010B1
:1017800021F480411143CBF800102068800207D576
:10179000A26ED8F8001021F080711143C8F8001033
:1017A000206840000CD5DBF8001021F40041CBF894
:1017B0000010DBF80010D4F8B8201143CBF800106B
:1017C0002068002807DA0C48226D0838016821F0EB
:1017D00040511143016000E014E02068000208D588
:1017E000D4F88820DAF8001021F440011143CAF837
:1017F000001086B1012003E054440258CFFFFF00DF
:10180000BDE8FC9FE26FDAF8001021F4407111434B
:10181000CAF80010A2E70020EDE700002DE9F05F14
:1018200004000F467ED0DFF83882D8F8000000F0C0
:101830000F00B8420CD2D8F8001021F00F01394344
:10184000C8F80010D8F8000000F00F00B84269D1C5
:101850002078844D40070AD52069296801F070017D
:10186000884204D9296821F0700101432960207859
:101870007C4E361D00070AD56069316801F07001A1
:10188000884204D9316821F0700101433160207829
:10189000C0060AD5A069316801F4E061884204D924
:1018A000316821F4E061014331602078DFF8B4B1A0
:1018B00080060BF1080B0CD5E1695846DBF80020D7
:1018C00002F07002914204D9026822F070020A43C9
:1018D0000260207880070AD5E068296801F00F01CE
:1018E000884204D9296821F00F010143296020783A
:1018F000C0073ED05B49A2682868183920F47060A0
:10190000104328606068022818D0032819D009689D
:10191000012819D0490700294ADADFF848A1AAF1BD
:10192000080A00E044E0DAF8002022F0070202434F
:10193000CAF80020FFF7ECF9814612E00968890334
:10194000E9E709688901E6E7C905E4E7FFF7E0F997
:10195000A0EB090141F28830814202D90320BDE8A1
:10196000F09F6168DAF8000000F03800B0EBC10FBA
:10197000ECD1207880070AD5E068296801F00F01D2
:10198000884204D2296821F00F0101432960D8F868
:101990000010404601F00F01B9420BD9016821F057
:1019A0000F0139430160006800F00F00B84201D018
:1019B0000120D4E7207840070AD52069296801F082
:1019C0007001884204D2296821F070010143296026
:1019D000207800070AD56069316801F070018842FB
:1019E00004D2316821F07001014331602078C006D3
:1019F0000AD5A069316801F4E061884204D23168F7
:101A000021F4E06101433160207880060CD5E16962
:101A10005846DBF8002002F07002914204D20268BE
:101A200022F070020A43026000F026F80E492A688C
:101A30002B68C2F3032203F00F038A5CC95C02F037
:101A40001F0201F01F01D040084A20FA01F1116085
:101A50000749086007480068BDE8F05FFFF794B9E0
:101A6000002000521844025803C10008A4000024BA
:101A7000A000002498000024454970B54548096835
:101A8000434B103B11F0380208D00111082A03D053
:101A9000102A0BD0182A0BD0084670BD1968890689
:101AA000FBD51968C1F3C101C84070BD3A4870BD8B
:101AB0003749374D18310C1D24350A6809682668E6
:101AC0002D6802F0030406F00102C1F30511C5F30D
:101AD000CC0515FB02F200EE102AB8EE400AE9B37D
:101AE0002F4ADFED2E0AB7EE001A6CB1DFED2D1A8A
:101AF000012C01D0022C43D002EE101A1068F8EE2F
:101B0000422A81EEA22A1EE01C68A40611D51B6899
:101B100001EE901A1168C3F3C103F8EE612AD840B0
:101B200001EE900AC1F30800F8EE611A81EEA22AD4
:101B30000BE001EE901ADFED1C2A00BFF8EE611AEF
:101B4000106882EEA12AC0F3080001EE900AF8EEB8
:101B5000611A40EE201A31EE810A00E015E022EE13
:101B6000000A1068C0F34620401C00EE900AF8EE10
:101B7000600A80EE201ABCEEC10A10EE100A70BD99
:101B800001EE901ADFED092AD8E7002070BD0000B1
:101B9000104402580090D00340787D0100000039C5
:101BA000304402580024744A0024744C20BCBE4BBC
:101BB0002DE9F05F04007CD0FF4F2078FE4D1837F0
:101BC000DFF8F493103DC00748D0D9F80000396819
:101BD00000F03800102815D0182803D101F00300B8
:101BE00002280FD06068B0F5803F12D010B1B0F578
:101BF000A02F18D0286820F480302860286820F4AE
:101C0000802009E02868800328D560680028D2D0A9
:101C100024E0286840F480302860606888B1FFF7CD
:101C200077F8064609E0286840F480202860F0E74D
:101C3000FFF76EF8801B64287ED828688003F7D5EC
:101C40000CE0FFF765F8064605E000BFFFF760F817
:101C5000801B6428F0D828688003F7D4207841F2EC
:101C60000308D54E0C3E800753D5D9F800003968DB
:101C700010F038000ED0182801D188070AD0E0688B
:101C8000A8B3296821F0190101432960FFF740F842
:101C900082461BE02868400702D5E06800288AD009
:101CA000FFF730F840451BD82069402812D0316832
:101CB00000E0CCE021F47C3141EA0030306028E0E3
:101CC000FFF726F8A0EB0A000228B5D828684007DD
:101CD000F6D5E5E7306820F47C3040F40030EDE7DD
:101CE000207C316821F0FE4141EA0060E6E7FFE731
:101CF000286820F001002860FFF70AF8824605E016
:101D0000FFF706F8A0EB0A00022895D828684007DC
:101D1000F6D42078C0065FD5D9F80000DFF898B275
:101D2000396800F03800ABF1040B082812D01828ED
:101D300005D101F0030000E0EAE001280AD0E069E3
:101D40000028286838D040F080002860FEF7E0FFC7
:101D5000824623E02868C00523D5E069802876D133
:101D60001FE0206A202821D0316821F0F84141EAA3
:101D70008060306030E000BF94F82010DBF8002075
:101D800022F07C5242EA0161CBF8001024E000BF4F
:101D9000FEF7BEFFA0EB0A00022896D82868C0050F
:101DA000F6D5FEF7AFFF4045E6D8DAE7306820F019
:101DB000F84040F08040DCE720F080002860FEF72B
:101DC000A7FF064605E000BFFEF7A2FF801B022822
:101DD0009BD82868C005F7D42078000729D5764815
:101DE0006169643000298046016811D041F0010129
:101DF0000160FEF78DFF064605E000BFFEF788FF95
:101E0000801B0228C9D8D8F800008007F6D510E05A
:101E100021F001010160FEF77BFF064605E000BFEF
:101E2000FEF776FF801B022872D8D8F800008007E2
:101E3000F6D42078800623D5A0690028286810D021
:101E400040F480502860FEF763FF064605E02CE171
:101E5000FEF75EFF801B02285AD828688004F7D559
:101E60000EE020F480502860FEF752FF064604E0A2
:101E7000FEF74EFF801B02284AD828688004F7D45A
:101E8000207840074FD5DFF83481D8F8001041F4AE
:101E90008071C8F80010FEF73BFF064605E000BF62
:101EA000FEF736FF801B642832D8D8F80000C00542
:101EB000F6D5414EA068603601280AD008B1052841
:101EC00013D0306820F001003060306820F004004A
:101ED00002E0306840F001003060A06841F2883ACA
:101EE00090B1FEF715FF80460AE0306840F004002C
:101EF0003060EEE7FEF70CFFA0EB0801514507D874
:101F000030688007F6D50EE0FEF702FF804607E056
:101F100084E000BFFEF7FCFEA0EB080151457DD830
:101F200030688007F6D4606AF0B3DFF88C80D9F8A7
:101F3000001008F12008C1F3C20103296FD0022864
:101F4000286820F08070286003D0FEF7E1FE044688
:101F500080E0FEF7DDFE064605E000BFFEF7D8FE96
:101F6000801B022873D828688001F7D4E26A40F207
:101F7000F331386854F8283F884340EA0210184388
:101F80003860217B4FF4FE0C22894FF0FE47208AF7
:101F90004902267D521E401EA1F5007189B20CEA4D
:101FA0000040C2F3080200E081E01143761E0143C5
:101FB000014807EA066203E010440258004802584C
:101FC0001C3011433B4AC8F80010016821F00101A0
:101FD000016011684FF6F876236AB14341EAC30104
:101FE00011600168A26921F00C01114301600168D0
:101FF000E26921F0020111430160016841F480317E
:102000000160016841F400310160016841F4802100
:102010000160016841F00101016001E017E01DE08D
:10202000286840F080702860FEF772FE044604E0E5
:10203000FEF76EFE001B022809D828688001F7D53C
:1020400035E000BFFEF764FE001B022802D9032022
:10205000BDE8F09F28688001F4D428E039680128A1
:10206000D8F8000021D0A26A01F0030393421CD1EA
:10207000E26AC1F305118A4217D1216BC0F308024D
:10208000491E8A4211D1616BC0F34622491E91421A
:102090000BD1A16BC0F30642491E914205D1E16B01
:1020A000C0F30660491E814201D00120D0E7002024
:1020B000CEE70000344402580068503050F8210048
:1020C00070470068503040F82120704710B50B462B
:1020D00001680F48002A496801EA000101F03F0445
:1020E0004FEA1140D870C1F304225A709C70C1F3BA
:1020F000423119700AD101F069FDD870587801F0A9
:1021000065FD5870987801F061FD9870002010BD51
:102110003FFFFF0010B50B460168134C002A896A87
:10212000596001680969C1F30E019960006801688E
:1021300001EA040101F07F04C1F305401870C1F306
:1021400006225A709C704FEA9151D9700AD101F061
:102150003DFD1870587801F039FD5870987801F0FD
:1021600035FD9870002010BD7F7F7F0070B50400A2
:102170004FF0010041D094F8210028B9002084F8E4
:102180002000204600F03CF8022184F82110CA20EB
:1021900022685321506220684162204601F02CFDE4
:1021A00018BB2068154A816811408160D4E900138A
:1021B000A569226988682A43184310438860226809
:1021C0002189E06840EA01401061204601F036FDB7
:1021D00058B92168CA6C22F00302CA642268636994
:1021E000E169D56C19432943D1642268FF2151620A
:1021F000002802D1012184F8211070BDBFFF8FFF9C
:1022000010B5B0B00446BC216846FEF757FA0A493B
:10221000206888420ED100020090811368462C91FC
:10222000FEF792FE08B1FEF72CFC0448016841F469
:102230000041016030B010BD0040005870440258A9
:1022400070B5044690F820000B4601281BD00126EB
:1022500084F82060022084F821005878AAB1DA7846
:10226000000299781B7841EA024540EA4330054371
:102270002268CA215320516221684862204601F039
:10228000BBFCC8B11FE0022070BDC10603D500F041
:10229000EF000A305870D87801F0A1FC0204587899
:1022A00001F09DFC42EA0022987801F098FC197830
:1022B000024342EA4135DBE72168084805404D60AA
:1022C000204601F0BBFC2268FF21516208B984F866
:1022D0002160002184F8201070BD00003FFFFF0046
:1022E0002DE9F041044690F8200090460D46012863
:1022F00012D0012784F82070022184F82110CA200E
:1023000022685321506220684162204601F074FC2B
:102310004FF0000618B12AE00220BDE8F0812068E5
:10232000B8F1000F80684FEA406025D0002800DB3C
:10233000EE7068782A78A978EB784FEA002C41EAA9
:1023400002404CEA83510843226818490840106053
:102350002068816821F4802181602168D5E9030229
:102360008B68104318438860204601F067FC2268A0
:10237000FF215162A0B115E0002800DBEE70287843
:1023800001F02DFC0204687801F029FC42EA0022E9
:10239000A87801F024FCE978024342EA8150D3E7AF
:1023A00084F8217084F82060B7E700007F7F7F0009
:1023B00070B504460068C16821F0A001C160FEF755
:1023C000A7FC4FF47A76054607E000BFFEF7A0FCB5
:1023D000401BB04201D9032070BD2068C068800650
:1023E000F4D5002070BD00002DE9F047040029D08D
:1023F0004E4D4FF0000920684D4B4E4AA842C4F89C
:10240000289006D0984204D0904202D0E1680F296B
:1024100018D8E1684FF0010AE76B0831C9080AEBE8
:1024200057167143A84205D0984203D0904201D07C
:10243000082907D8A84203D0984201D0904204D17D
:10244000102902D90120BDE8F08794F8810020B955
:10245000204684F8809000F06FF8022084F8810014
:102460002068016821F001010160A069B0F1806F6E
:1024700011D16068B0F5800F01D018B10BE0A06BEE
:1024800020B108E0A06BB0F1805F04D12068016842
:1024900041F480510160A56AE0692368E16B28433B
:1024A000E268084310439860D4E90D02D4E905714D
:1024B000636A25691843D4F820C00A43266810438C
:1024C0002843A56D3843D4E90182D4E9123140EAAA
:1024D0000C0040EA08000843104318432843F0600A
:1024E000606868B92068816821F4C05141F40061D6
:1024F00081602068816821F4C06141F4806181605D
:102500002068016D21F0010101656068400206D577
:102510002068626DC16821F000411143C160C4F8B8
:10252000849084F881A000208DE7000000300140F5
:1025300000380040003C004010B5B6B004461421FD
:102540002FA8FEF7BBF8BC216846FEF7B7F818497C
:102550002068884229D140140090002468461894CD
:10256000FEF7F2FC08B1FEF78CFA1248016841F45C
:1025700000510160006800F4005034900D4810389C
:10258000016841F010010160006805224FF4A0418C
:10259000319400F0100034900220CDE92F10CDE9E5
:1025A000320205482FA9FEF783FA36B010BD0000AD
:1025B00000340140F0440258001002582DE9F84F51
:1025C0000F46416804461D4600201646B1F5800FAF
:1025D0004FF0040B009001D1A06888B194F88000FE
:1025E000012818D04FF0010984F88090FEF790FB85
:1025F00094F881108246002001290ED0022125E0A6
:1026000084F881B02046009313463A46114600F004
:10261000FFF9BDE8F88F0220FBE7B7B1AEB1A268C1
:1026200080466766A4F8686084F881B0C4F88400C6
:10263000A4F86A60E065A4F86000A4F86200B2F54E
:10264000C02F2067606705D009E0012184F8800071
:102650000846DEE72068016821F400610160206817
:1026600041686FF30F01314341602068016841F018
:10267000010101606068B0F5800F04D12068016835
:1026800041F400710160E0680F282ED948F2080675
:10269000B4F86A00002858D02068416931420BD054
:1026A000006B616E0860606E001D6066B4F86A00C1
:1026B000401EA4F86A00EBE7FEF72AFBA0EB0A0035
:1026C000A84202D3681CE3D001E0002DE0D12046EF
:1026D00001F0DEFAD4F8842084F8808042F480711E
:1026E000C4F8841084F8819078E0072829D867E03E
:1026F0002068416911F4604F18D04169090409D577
:10270000006B616E0860606E001D6066B4F86A0060
:10271000801E08E0008E616E0880606E801C60661E
:10272000B4F86A00401EA4F86A000AE0FEF7F0FA66
:10273000A0EB0A00A84202D3681C02D0C7E7002D14
:10274000C5D0B4F86A000028D2D13DE020684169C4
:1027500011F4604F29D04169090409D5006B616EFD
:102760000860606E001D6066B4F86A00001F19E022
:10277000416901F4C041B1F5005F09D9008E616E75
:102780000880606E801C6066B4F86A00801E09E0F4
:1027900090F83000616E0870606E401C6066B4F89E
:1027A0006A00401EA4F86A000AE0FEF7B1FAA0EB46
:1027B0000A00A84202D3681C02D088E7002D86D008
:1027C000B4F86A000028C1D1204601F061FA84F80B
:1027D0008190D4F8841084F8808009B1012018E732
:1027E000009816E72DE9F84F8A4690F880101D46AC
:1027F0001746012904464FF0000B0DD04FF0010899
:1028000084F88080FEF784FA814694F881000026DF
:10281000012804D002201EE00220BDE8F88FBAF1A2
:10282000000F17D0B7B1A1680320C4F85CA0A4F8CA
:10283000607084F88100C4F88460A4F862706666F1
:10284000A4F86860A4F86A60B1F5C02F66672667CF
:1028500004D008E0012084F88060DEE72068016889
:1028600041F400610160206841686FF30F01394352
:1028700041602068016841F0010101606068B0F5C5
:10288000800F04D12068016841F400710160E068A4
:102890000F281AD82CE02068416989070BD5E16D13
:1028A00009680162E06D001DE065B4F86200401E39
:1028B000A4F8620009E0FEF72BFAA0EB0900A84299
:1028C00002D3681C01D005E025B1B4F862000028ED
:1028D000E1D181E0204601F0DBF9D4F8841084F8DE
:1028E000806041F48071C4F8841084F881808BE0AA
:1028F00007282BD86CE02068416989071BD5B4F8FC
:10290000621001290BD9E16B49B1E16D09680162DF
:10291000E06D001DE065B4F86200801E08E0E16D26
:1029200009880184E06D801CE065B4F86200401EF7
:10293000A4F862000AE0FEF7EBF9A0EB0900A84258
:1029400002D3681C02D0C5E7002DC3D0B4F86200E2
:102950000028D0D140E02068416989072DD5B4F81E
:10296000621003290CD9E16B402909D9E16D09688E
:102970000162E06D001DE065B4F86200001F19E01F
:10298000B4F8621001290BD9E16B49B1E16D0988F6
:102990000184E06D801CE065B4F86200801E09E0EF
:1029A000E16D097880F82010E06D401CE065B4F816
:1029B0006200401EA4F862000AE0FEF7A9F9A0EB4D
:1029C0000900A84202D3681C02D083E7002D81D001
:1029D000B4F862000028BED100224B4608212046F0
:1029E000009501F0B3F928B1D4F8840040F020003C
:1029F000C4F88400204601F04BF984F88180D4F8B3
:102A0000840084F8806008B1012006E7584604E796
:102A10002DE9FF4F83B090F8801004461D4600203A
:102A20009346109F0129019014D04FF0010A84F8B9
:102A300080A0FEF76DF9804694F88100636800215C
:102A400001282E464FF480020CD0934208D1A3688F
:102A500033B903E0022007B0BDE8F08F042801D0AD
:102A6000022037E0049898B3BBF1000F31D07DB35A
:102A700094F88100042802D0052084F8810089465A
:102A80000846C4F88410C4F864B0A4F86A50A4F8E6
:102A900068500499E165A4F86250A4F8605020677A
:102AA0006067206841686FF30F0129434160206827
:102AB000016841F0010101606068904204D1206822
:102AC000016841F400710160E0680F2835D846E0E4
:102AD000FFE7012084F88010BDE72068416989077D
:102AE0000DD565B1E16D09680162E06D001DE0651D
:102AF000B4F86200401EA4F86200B4F8625048F2D4
:102B000008022068416911420DD066B1006B616E08
:102B10000860606E001D6066B4F86A00401EA4F88C
:102B20006A00B4F86A60FEF7F3F8A0EB0800B84258
:102B300002D3781C01D004E01FB155EA0600CCD1C5
:102B4000DBE0204601F0A4F8D4F8842084F88090DB
:102B500042F48071C4F8841084F881A0E5E007286D
:102B60004AD8C7E02068416989071BD5D5B1012D36
:102B70000BD9E16B49B1E16D09680162E06D001D9F
:102B8000E065B4F86200801E08E0E16D0988018408
:102B9000E06D801CE065B4F86200401EA4F862009D
:102BA000B4F862502068416911F4604F1AD0CEB178
:102BB0004169090409D5006B616E0860606E001DF3
:102BC0006066B4F86A00801E08E0008E616E0880BE
:102BD000606E801C6066B4F86A00401EA4F86A004B
:102BE000B4F86A60FEF794F8A0EB0800B84202D38C
:102BF000781C01D004E01FB155EA0600B2D17CE098
:102C0000204601F045F8D4F8842084F8809042F4FE
:102C10008070C4F8840084F881A086E0206841694F
:102C200089072BD555B3032D0CD9E16B40290BD95E
:102C3000E16D09680162E06D001DE065B4F86200B5
:102C4000001F17E0012D0BD9E16B49B1E16D098837
:102C50000184E06D801CE065B4F86200801E09E02C
:102C6000E16D097880F82010E06D401CE065B4F853
:102C70006200401EA4F86200B4F862502068416906
:102C800011F4604F2BD056B34169090409D5006B8C
:102C9000616E0860606E001D6066B4F86A00001F17
:102CA00019E0416901F4C041B1F5005F09D9008E16
:102CB000616E0880606E801C6066B4F86A00801ED9
:102CC00009E090F83000616E0870606E401C60662C
:102CD000B4F86A00401EA4F86A00B4F86A60FEF70F
:102CE00017F8A0EB0800B84202D3781C02D028E7FE
:102CF000002FFCD055EA060090D10022434608215F
:102D00002046009701F022F828B1D4F8840040F062
:102D10002000C4F88400204600F0BAFF84F881A0A7
:102D2000D4F8841084F8809009B1012093E60198CA
:102D300091E6401EB0F1807F10B501D3012010BD97
:102D40004FF0E02460610F21601702F020F90020AD
:102D5000A0610721216110BD2DE9F04390F83C20CE
:102D6000012A42D0012280F83C2051F80C4BDFF8B8
:102D700080804FF0000991E8680051E9022723F4B0
:102D80004073B1F80CC03B43CF6923F48063134315
:102D9000026823F40063234323F4805343EA0503CA
:102DA00023F4005343EA060323F4804343EA070372
:102DB0000C3923F47023424543EA0C4302D00D4CF6
:102DC000A2420CD18D8C23F47006D1E9073446EA77
:102DD000055121F08071194321F00073234353649E
:102DE00080F83C900020BDE8F0830220FBE7000063
:102DF0000000014000040140F0B590F83C20012A99
:102E000038D01D4E012480F83C40022280F83D203D
:102E100002681A4D5368B242D2F808C001D0AA42E3
:102E200003D14F6823F470033B430F6823F0700312
:102E30001F4357600268B24210D0B2F1804F0DD0EC
:102E40000F4B9A420AD00F4B9A4207D00E4B9A4230
:102E500004D0AA4202D00D4B9A4204D189682CF0CA
:102E6000800319439160002180F83D4080F83C10B8
:102E70000846F0BD0220F0BD000001400004014002
:102E80000004004000080040000C00400018004012
:102E900010B504464FF0020249B104290ED00829AA
:102EA00013D094F84700012816D0012010BD94F8E3
:102EB00044000128F9D184F844200FE094F845003B
:102EC0000128F2D184F8452008E094F84600012852
:102ED000EBD184F8462001E084F8472004222068E2
:102EE00001F0BEFE20681449426C42F40042426484
:102EF0002068884211D0B0F1804F0ED00F4988422F
:102F00000BD00F49884208D00E49884205D00E499F
:102F1000884202D00D49884207D181680C4A11408D
:102F2000062906D0B1F5803F03D0016841F00101C8
:102F30000160002010BD00000000014000040040BE
:102F400000080040000C0040000401400018004050
:102F50000700010010B586B0044614216846FDF74D
:102F6000ADFB0E492068884216D10D48016841F03A
:102F70001001016000680123022200F0100005909A
:102F800000204FF4806100916946CDE90120CDE930
:102F900003030448FDF78CFD06B010BD000001409E
:102FA000E04402580010025870B5044690F83C0006
:102FB0000D4601280BD0012084F83C000C2A45D096
:102FC00007DC5AB1042A1BD0082A78D12CE0022051
:102FD00070BD102A4ED0142A71D15DE0206801F036
:102FE0004DFE2068816941F0080181612068816996
:102FF00021F00401816120682A698169114311E08F
:10300000206801F08FFE2068816941F400618161D0
:103010002068816921F48061816120682969826961
:1030200042EA012181614AE0206801F0C7FE206880
:10303000C16941F00801C1612068C16921F0040142
:10304000C16120682A69C169114311E0206801F05B
:10305000FBFE2068C16941F40061C1612068C1695B
:1030600021F48061C16120682969C26942EA0121B5
:10307000C16124E0206801F01DFF2068416D41F02E
:10308000080141652068416D21F004014165206817
:103090002A69416D114311E0206801F041FF206869
:1030A000416D41F4006141652068416D21F480610A
:1030B000416520682969426D42EA0121416500208D
:1030C00084F83C0070BD10B5040003D094F83D00B6
:1030D00010B107E0012010BD002084F83C0020461C
:1030E00000F022F8022084F83D002068211D01F044
:1030F00055FD012084F8480084F83E0084F83F0024
:1031000084F8400084F8410084F8420084F84300C9
:1031100084F8440084F8450084F8460084F84700A9
:1031200084F83D00002010BD08B5006806498842BB
:1031300008D10648016841F001010160006800F013
:103140000100009008BD000000000140F04402585A
:10315000FEE7000001480068806B70479C06002471
:103160002DE9F0410D4601462DED028BFFF7F2FFF0
:103170008842044631D0002D2FD001EE904A01EE56
:10318000101A00EE905AF8EE611AB8EE411AB8EE35
:10319000602A9FED140A71EEC10A30EE420A80EEF9
:1031A000808AFDF7B5FD104F06460120FDF76EFC45
:1031B000FDF7AEFD801B3A6800EE904A00EE100A63
:1031C000F8EE600AB8EE400A40EE080ABCEEE00AEB
:1031D00010EE101A9163A842E7D3BDEC028BBDE854
:1031E000F0810000000000009C0600242DE9FF4F44
:1031F00085B01D460C2B90460C46894605980490D8
:103200006348DDF848B0068819D0082715FB07F099
:103210004000FDF7BDF803A982465E4800F0C2FFFA
:103220005C4802A900F0C6FFA8F120014FF00000A1
:10323000C9B20791BBF1000F014602D097E0062703
:10324000E4E7DFF84CE149E00C2D0ED0079B524A31
:1032500002EB0312002321F0010B525C00931306D2
:103260000AD573BAAEF800300CE0079A02EB4203BD
:103270004A4A02EB8302EDE7BEF802C09CFA9CFCCE
:10328000AEF800C007FB00F3401CBEF800C080B2DF
:103290000AEB4303A84223F80BC000D30020029B93
:1032A0005206641CA4B2120E9C4202D3AEF8006017
:1032B00047E0A4EB0903AB4208D1059A4C46039BB7
:1032C000521C92B205929A42F0D205E0009B5B1C20
:1032D000DBB20093082BC2D3491CC9B2A942B3D3B5
:1032E00047E00C2D33D0079B2B4A02EB03124FF023
:1032F000000B21F0010E525C130608D5244B07FB8E
:1033000000FC1B880AEB4C0C5BBA2CF80E30401CFE
:1033100080B2A84200D30020029B5206641CA4B2D3
:10332000120E9C420BD2A4EB0903AB4216D1059AB4
:103330004C46039B521C92B205929A4215D31448F4
:1033400006805046FDF753F809B0BDE8F08F079AA4
:1033500002EB4203114A02EB8302C8E70BF10103BF
:1033600003F0FF0BBBF1080FC6D3491CC9B2A94239
:10337000B7D30C2D09D008200499CDE900050548E4
:1033800053464A4600F076FED9E70620F4E70000EF
:1033900000000024A8000024CA5600085652000865
:1033A0002DE9F84F0D46044658194FF0000A11193F
:1033B00087B21FFA81F8DDE90AB604F0FF0912E0CE
:1033C000444503D305EB0B004C4685B2BD420FD2FA
:1033D0005B4629462046CDF800A0FFF707FF04EB27
:1033E0005B0084B2761C3278A2F120005E28E7D917
:1033F000BDE8F88F2DE9F04F6D4C032087B04FF0FA
:10340000000A01215646A06084F80CA06173694946
:10341000694801F071F9DFF8A48105216648224668
:103420004546D8F8003098476249AA68091F6248A3
:103430009047DFF88CB1DBF8000086630022AD6AAC
:103440001146604B5C48A847FDF762FCDFF87891B5
:103450004FF40056054654E00A20FDF717FBFDF730
:1034600057FC401BB0F57A7F0CD8FDF751FC421B8E
:10347000DBF8003064204FF47A714243B2FBF1F084
:1034800098633EE0FDF744FC411B40F6B8308142B2
:1034900030D8FDF73DFC401B0A21A0F57A70B0FB47
:1034A000F1F24AA102A8FCF7C9FF02A910201023DB
:1034B000CDE90001208882B2A0F11E0188B201216D
:1034C000FFF76EFFFDF724FC2368401BA0F57A7020
:1034D0004FF6FF774FF4FA6258430321B0FBF2F343
:1034E000CDE9001762680021D8F83870D21E324842
:1034F000B84706E0FDF70CFC411B40F6B8308142AE
:103500000AD831464F464846FDF7EAFB0128A3D1C9
:1035100002E00A20FDF7BAFA31463846FDF7E0FB33
:103520000128F6D000204FF49671FFF719FE61686C
:103530000022CDE9001AD8F83850114623681E48F9
:10354000A84724A102A8FCF779FF02AD10260421A8
:103550003346CDE90065208882B20846FFF720FF98
:10356000FDF7C8FB1FA1024602A8FCF767FFCDE9E3
:10357000006520881023162182B20420FFF710FF77
:103580000C481CA10838426802A8FCF757FFCDE997
:10359000006520881023282182B20420FFF700FF55
:1035A000C8216420FFF7DCFD07B0BDE8F08F000004
:1035B000E005002408000024A800002428000024BE
:1035C0009C060024BA5C00080008025825303364C9
:1035D0000000000057654163742053747564696F7F
:1035E0000000000053544D3332483778782030784B
:1035F000255800004C43442049443A30782558006F
:1036000070B50A4E01220C46054608213046FDF7EA
:103610006CFB681EFDF73AFA002230460821FDF7E0
:1036200064FB601EBDE87040FDF730BA0010025820
:103630007FB500250095019502950395FDF7F2FBF6
:1036400001248DF800401B208DF808008DF80B50E8
:103650004FF010468DF80A4068468DF801500196EB
:1036600003948DF80950FDF7AFFB16208DF8080084
:103670008DF80F4005218DF80B1068468DF80E402F
:103680008DF800408DF80D508DF80A408DF80140FE
:1036900001968DF80C508DF80950FDF795FB04202C
:1036A000FDF7CEFB7FBD0000F0B587B01421684662
:1036B000FDF704F82648016841F010010160016837
:1036C00001F010010591016841F0040101600168F9
:1036D00001F004010591016841F080010160016879
:1036E00001F080010591016841F00101016000686D
:1036F0000022184F082100F0010005903846FDF720
:10370000F4FA4FF42056384601223146FDF7EDFA1F
:1037100000246946012508200090CDE9015438466F
:103720000394FDF7C5F90221680300900A48CDE92A
:1037300001416946FDF7BCF903206946CDE9006502
:10374000CDE902403846FDF7B3F907B0F0BD0000FF
:10375000E0440258001002580008025830B587B003
:1037600014216846FCF7AAFF3F4800243D497F2208
:103770000594FF23E0E8021480E81C000461446122
:10378000C4603948FEF7F2FC08B1FDF77AF9364813
:103790000121FEF791FC43F2F22290422AD03248F6
:1037A0000121FEF78EFC12208DF800008DF80140FB
:1037B00001222D4869468DF8024003940494FEF7D7
:1037C0008FFD08B1FDF75DF901208DF81400062189
:1037D0008DF815108DF8160020228DF8172005A9F8
:1037E00002462148FEF72CFD002801D0FDF749F9DB
:1037F00007B030BD1D4C1E4D206800020CD50122C3
:1038000028460821FDF771FA0920FDF73FF900224B
:1038100028460821FDF769FA206840021CD50122DC
:1038200028460821FDF761FA0920FDF72FF900224B
:1038300028460821FDF759FA6320FDF727F90122F0
:1038400028460821FDF751FA0920FDF71FF900224B
:1038500028460821FDF749FA206840F480302060AE
:10386000C6E7000000400058F0050024D04402588C
:10387000001002582DE9F04115484FF48006002150
:10388000124D34010722C0E90321E300C0E9051409
:10389000C0E9073141625A0081624FF4C027C1621A
:1038A000C0E90D21C163016441648164C1640165A3
:1038B0004165816580E8E000FEF796FD002803D0B1
:1038C000BDE8F041FDF7DDB8BDE8F081003401400E
:1038D0001406002410B596B000241C210BA81294E5
:1038E00013941494FCF7EAFE2C216846FCF7E6FEDC
:1038F00023480B22214940F2E73380E81600C0E953
:10390000033444618461FFF7DEFB08B1FDF7B9F8C9
:103910001B4812A9129413941494FFF76DFA08B17E
:10392000FDF7AFF860200821CDE90B04144804220C
:10393000CDE90D410BA90F9410941194FFF734FBBE
:1039400008B1FDF79EF84FF4005000940194010374
:103950000294CDE9044003940694CDE90741084858
:10396000694609940A94FFF7F7F908B1FDF789F859
:103970000348FFF7EFFA16B010BD00000000014049
:103980009C060024FEE77047704700002DE9F047D1
:10399000454D044689464FF0000A2868C043800719
:1039A0000AD0414E283E306820F080603060FDF73C
:1039B000AFF90746B04608E00120BDE8F08700BF38
:1039C000FDF7A6F9C01B022867D8D8F8000000014F
:1039D000F6D4206829684FF4FE0721F47C313E02BA
:1039E00041EA00302860207AA389B4F804C040027C
:1039F0002D4D2D495B1E227CACF1010C1035091DAB
:103A0000A0F5007080B2521ECCF3080C07EA034305
:103A100040EA0C00184306EA026210432860086876
:103A2000626920F0C000104308600A68A06922F0B3
:103A3000200202430A60281D0A6822F010020A6070
:103A400002684FF6F873E4699A4342EAC4020260DE
:103A50000868B9F1000F40F010020A6011D0086840
:103A6000B9F1010F11D040F400100860D8F800003F
:103A7000444640F08060C8F80000FDF749F905466B
:103A80000DE0086840F40020EFE740F48010ECE718
:103A9000FDF73EF9401B022801D903208DE720687D
:103AA0000001F5D5504688E7284402582DE9F04733
:103AB000454D044689464FF0000A2868C0438007F8
:103AC0000AD0414E283E306820F080503060FDF72B
:103AD0001FF90746B04608E00120BDE8F08700BFA7
:103AE000FDF716F9C01B022867D8D8F8000080003F
:103AF000F6D4208829684FF4FE0721F07C713E023D
:103B000041EA00502860207AA389B4F804C040023A
:103B10002D4D2D495B1E227CACF1010C1835091D81
:103B2000A0F5007080B2521ECCF3080C07EA0343E4
:103B300040EA0C00184306EA026210432860086855
:103B4000626920F44060104308600A68A06922F4AA
:103B5000007202430A60281D0A6822F480720A601B
:103B600002684FF6F873E4699A4342EAC4020260BD
:103B70000868B9F1000F40F480720A6011D008683B
:103B8000B9F1010F11D040F080700860D8F8000042
:103B9000444640F08050C8F80000FDF7B9F80546EB
:103BA0000DE0086840F48000EFE740F40000ECE727
:103BB000FDF7AEF8401B022801D903208DE72068ED
:103BC0008000F5D5504688E728440258020900F0E5
:103BD0000F0102EB820001EB4000C0B270470146CA
:103BE000002002E00A39401CC9B20A29FAD20007B3
:103BF00041EA1060704700002DE9F041044600687A
:103C00000025C168490615D4691EC160FDF780F81A
:103C1000032706464FF47A7808E000BFFDF778F8EE
:103C2000801B404502D9032584F821702068C068B4
:103C30004006F3D52846BDE8F08100002DE9F041AB
:103C4000124C032706460025E06820F04000E060A3
:103C5000A068800607D43046FEF7AAFB90B1032582
:103C600086F821700EE0A06820F02000A0603046A9
:103C7000FEF79EFB10B1032586F82170A06840F086
:103C80002000A0602846BDE8F081000000400058F8
:103C900010B5026840F26F335169946944F008042A
:103CA00094610268946944F0100494610268146895
:103CB00024F001041460026814699C4314610268D2
:103CC000936823F44043936090F88120042A0CD039
:103CD0008A060AD5D0F8842042F08002C0F88420F9
:103CE0000268936943F02003936190F88120032ACE
:103CF0000CD04A060AD5D0F8842042F00402C0F85D
:103D000084200268936943F0400393618A050AD5D1
:103D1000D0F8842042F00102C0F884200268936940
:103D200043F400739361C9050AD5D0F8841041F0BB
:103D30000801C0F8841001688A6942F480728A61BF
:103D40000021A0F86210A0F86A1010BD2DE9F04122
:103D5000984616460D460746069C09E0FCF7D8FF34
:103D6000A0EB0800A04202D3601C01D00BE054B1CC
:103D70003868406935EA000007D00020B042EDD035
:103D80000020BDE8F0810320FBE70120F6E70020DA
:103D900070470000F8B504466A46002003468DF8D7
:103DA000000004F120001321054601F048FA0A2121
:103DB0000646204600F006FA00236A4628212846D7
:103DC00001F03DFA064420460A2100F0FBF90023E9
:103DD0006A463621284601F032FA01460B488C1912
:103DE0000B49027B806801EBC00000790AB940F002
:103DF0000800694601228DF80000284601F018FAF3
:103E0000001901D04FF0FF30F8BD0000E00500249C
:103E100074000024F8B504466A46002003468DF875
:103E2000000004F120001321054601F008FA0A21E0
:103E30000646204600F0C6F900236A462921284696
:103E400001F0FDF9064420460A2100F0BBF90023E9
:103E50006A463621284601F0F2F901460B488C19D2
:103E60000B49027B806801EBC00000790AB940F081
:103E70000800694601228DF80000284601F0D8F9B3
:103E8000001901D04FF0FF30F8BD0000E00500241C
:103E9000740000242DE9FF4F93F8038093469C782B
:103EA00083B0DF7A4FF0000993F80CC004EB0824CC
:103EB000997ACA4693F80D80DE7C01EB07211F7DBD
:103EC0004FEA0C4C9A7C0CEB086893F815C08844B8
:103ED000DD7D3F0402EB06221E7E987D07EB0C6C15
:103EE0005F7E6244360400EB05201D7906EB076611
:103EF0005F7930442D0405EB0767324D3C4403EBFA
:103F0000080613466D680090A5EB0B05291AA4EB73
:103F1000080B88460A46DDE9030100F089FC4FF0F2
:103F2000FF35E8BB274C284F207B0028A06817F8F6
:103F3000300001D140F008008DF8040003980123FF
:103F400036212030009001AA01F079F940BBDDE96B
:103F50000301424600F006FC10BB707802228DF887
:103F6000080002A930788DF80900009801F060F986
:103F700008B1A94604E0B61C0AF1020ADA45ECD3FE
:103F8000207B0028A06807EBC000007901D140F039
:103F900008008DF8040001230098362101AA00E0F2
:103FA0000BE001F04CF940B9606800220090114626
:103FB0002368039800F03CFC00B1A94607B04846CE
:103FC000BDE8F08FE0050024740000242DE9F041E5
:103FD0001D46144B00248046069F48194FF0FF36BB
:103FE0001B68984219D8404600F0BCFBA8B90E499E
:103FF0000020C7F30722FBB206E000BF01EB400739
:1040000001F81020401C7B70A842F7D306496A00D3
:1040100008F1200001F00CF900B134462046BDE85B
:10402000F0810000E0050024600300242DE9F05F2A
:104030008A460F491E468346DDF8289090190025D0
:10404000174649684FF0FF38884208D8002409E035
:104050003A194B465146584600F0C6FC08B1454651
:1040600002E0641CB442F3D32846BDE8F09F000090
:10407000E00500242DE9FF5F1D481C4691468B4654
:10408000DDE90E674FF0FF3A4FF0000803688A1928
:104090009A4204D8416809EB0700884201D9D0460A
:1040A00022E000251EE000BF009809EB05025946FA
:1040B00000F058FBA0B90F49002008E0227801F871
:1040C000102001EB40026378401CA41C5370B042E6
:1040D000F4D3009872000749203001F0A9F800B12C
:1040E000D0466D1CBD42DFD304B04046BDE8F09F12
:1040F000E0050024E00000242DE9F84F0026994651
:104100008A468346DDE90A78144635460DE04B467B
:10411000224651465846CDF80080FFF757FF10B1B0
:104120004FF0FF3603E0641C6D1CBD42EFD33046F8
:10413000BDE8F88F4FF0FF307047000002488068FC
:104140000860002070470000E0050024FEB51C4612
:10415000054600F007FB064605F120002E21054626
:1041600002AA01F057F806442846012202A901F0EC
:1041700058F8064469460122284601F052F80644E0
:104180002846012201A901F04CF89DF8042080196D
:104190009DF8001001EB0221216001D04FF0FF30AB
:1041A000FEBD000002480068086000207047000063
:1041B000E0050024024840680860002070470000C5
:1041C000E005002470B50546C0690E4680470446E8
:1041D000E8698047001BB042FAD3002070BD2DE98A
:1041E000F74F5FEA000982B07DD04FF0000B6A46BE
:1041F00001215C4609F120005B468DF800B001907A
:1042000001F01DF878214846FFF7DCFF01980023F4
:1042100001216A468DF8004001F011F87821054629
:104220004846FFF7CFFF0198012311216A468DF818
:10423000004001F004F800236A46B12105440198CA
:1042400000F0FDFF46190198012569462A468DF8C0
:10425000005000F0EDFF871901982C2669460122D5
:104260008DF8006000F0E4FF00EB07084FF02D0A26
:1042700001980122574669468DF800A000F0D8FF4A
:1042800001236A46B2218DF800508044019800F065
:10429000D6FF01226946804401988DF8006000F045
:1042A000C7FF01226946804401988DF8007000F034
:1042B000BFFF01236A46B3218DF800508044019866
:1042C00000F0BDFF01226946804401988DF800602E
:1042D00000F0AEFF01226946804401988DF800701D
:1042E00000F0A6FF00E0CCE101226946804401987D
:1042F0008DF8005000F09CFF0122694600EB080594
:1043000001988DF8006000F093FF46190198012292
:1043100069468DF8007000F08BFF07256A4601237F
:104320008DF80050B4210644019800F088FFA221C6
:104330006A468719019801238DF80010C02100F00A
:104340007EFF0226694601228DF80060074401982D
:1043500000F06EFF84218DF80010012269460744A9
:10436000019800F065FFC5216A4601238DF8001011
:10437000C1210744019800F062FF0A216A46012327
:104380008DF80010C2210744019800F058FF012267
:104390006946074401988DF8004000F049FF8A24DF
:1043A0006A4601238DF80040C3210744019800F0BC
:1043B00046FF2A218DF80010012269460744019822
:1043C00000F036FF01236A46C4218DF800400744FF
:1043D000019800F034FFEE218DF80010C419019807
:1043E0000122694600F024FF0E216A4601238DF860
:1043F0000010C5210444019800F021FF04990444F1
:104400004FF000036A46097B00297ED020210198E5
:1044100000F015FF01233A210444019803AA00F09B
:104420000EFF0123B046E0216A46044401988DF84E
:10443000006000F004FF1C218DF800100122694685
:104440000444019800F0F4FE0122694604440198F6
:104450008DF8005000F0ECFE12218DF800100122C2
:1044600069460444019800F0E3FE37218DF80010FE
:10447000012269460444019800F0DAFE32218DF8E9
:104480000010012269460444019800F0D1FE29265B
:10449000694601228DF800600444019800F0C8FECE
:1044A00001226946044401988DF800A000F0C0FE86
:1044B00001226946044401988DF8006000F0B8FEBE
:1044C00025218DF80010012269460444019800F06E
:1044D000AFFE2B218DF8001001226946044401989B
:1044E00000F0A6FE39218DF800100719019801226D
:1044F000694600F09DFE01225C460744019869462A
:104500008DF800B000F094FE00E0BFE001218DF8CE
:104510000010074401980A46694600F089FE01220E
:104520004FF0030B0744019869468DF800B000F086
:104530007FFE0744694610208DF800000198012293
:1045400000F076FE01236A46E1218DF800B00744B1
:10455000019800F074FE074469461D208DF80000A4
:104560000198012200F064FE012269460744019887
:104570008DF8005000F05CFE06218DF8001001223D
:1045800069460744019800F053FE2E256946012232
:104590008DF800500744019800F04AFE0744694630
:1045A0002C208DF800000198012200F041FE01222C
:1045B0006946074401988DF8006000F039FEC6197D
:1045C0000198012269468DF800A000F031FE012219
:1045D0006946064401988DF8005000F029FE01223A
:1045E0006946064401988DF8005000F021FE3721FD
:1045F0008DF80010851901980122694600F018FE17
:104600003F218DF80010012269460544019800F011
:104610000FFE01226946054401988DF8004000F024
:1046200007FE01226946054401988DF8004000F01C
:10463000FFFD01226946054401988DF8008000F0D5
:10464000F7FD10218DF800100122694605440198FC
:1046500000F0EEFD01236A4613218DF80040054469
:10466000019800F0ECFD4419019801236A462921C4
:1046700000F0E5FD04440499484600F065F900198E
:1046800001D04FF0FF3005B0BDE8F08F2121BEE62C
:10469000F8B520300E46DA216A46074600F0BAFD2A
:1046A0004FF0FF3408B12046F8BD6D463846DB2197
:1046B0006A1C00F0AFFD0028F5D1AA1C3846DC21A9
:1046C00000F0A8FD0028EED1BDF801109DF80020F3
:1046D00049BA62F31F413160F8BD30B40C4603693A
:1046E0002046114630BC184730B40C46836920463A
:1046F000114630BC184700004FF0FF3210B5E0B152
:104700000B6803604C68002B44600C890481CC6802
:10471000C4600C6904614C6944618C698461C96935
:10472000C16107494162074901620749816207493E
:10473000C0E90B1001D098470246104610BD00009A
:10474000DB460008314A000851470008E9460008E6
:1047500030B40C4643692046114630BC18474FF030
:10476000FF307047F8B51446304A0D46114693683D
:104770000A7B497B012B0FD8012902D0022906D0E0
:1047800018E00AB1183515E0641C1A3512E0012A48
:1047900010D1641CAD1C0DE0012902D0022905D006
:1047A00008E00AB1183405E01A3402E0012A01D108
:1047B000A41C6D1C6A462030002306462A2100F006
:1047C0003EFD07466946280A8DF800000122304662
:1047D00000F02EFD07446946012230468DF8005056
:1047E00000F026FDC5196A46002330462B2100F053
:1047F00026FD210A8DF80010054469460122304645
:1048000000F016FD05446946012230468DF800404F
:1048100000F00EFD44196A46002330462C2100F0BA
:104820000EFD001901D04FF0FF30F8BDE005002467
:104830002DE9F8431546434A0C461E461146DDF85D
:10484000209093680A7B497B012B0ED8012902D066
:10485000022905D019E00AB1183416E01A3402E032
:10486000012A12D1A41C6D1C0FE0012902D00229DB
:1048700007D00AE004F101040AB1183505E01A3541
:1048800003E0012A01D1641CAD1C6A4620300023DC
:1048900080462A2100F0D3FC07466946200A8DF89D
:1048A00000000122404600F0C3FC07446946012293
:1048B00040468DF8004000F0BBFC34446946641E5D
:1048C000C619200A8DF800000122404600F0B0FC15
:1048D00006446946012240468DF8004000F0A8FCDD
:1048E00084196A46002340462B2100F0A8FC290ABF
:1048F0008DF80010044469460122404600F098FCFF
:1049000006196946012240468DF8005000F090FCDF
:1049100005EB09046946641E8519200A8DF800001C
:104920000122404600F084FC0544694601224046CD
:104930008DF8004000F07CFC401901D04FF0FF30B2
:10494000BDE8F883E00500242DE9FC41244C502308
:104950004A7B05468F68A02080263FB1012F05D0F5
:10496000012A0FD08AB1022A0FD010E0012A03D009
:104970002AB1022A03D00AE0C4E9003007E0C4E902
:10498000006004E0C4E9000301E0C4E900068868AF
:104990000022A060087B2073487B1146607360682A
:1049A000009028462368FFF743FF217B06460D4809
:1049B0000029A16800EBC100007901D140F0080096
:1049C0008DF804000123362101AA05F1200000F032
:1049D00036FC801901D04FF0FF30BDE8FC810000AB
:1049E000E005002474000024F8B506460F481F0AAD
:1049F0004FF6FF7404EA03234FF0FF353B43ADF855
:104A00000030036800248B420DD9406890420AD9D7
:104A10003046FFF7A7FE30B90222694606F12000B2
:104A200000F006FC00B12C462046F8BDE00500244D
:104A3000F0B4C66814460D4621462846B446F0BC7C
:104A40001A4660477047FCF769B90000F0B59DB0A1
:104A50004C216846FBF732FE202113A8FBF72EFEFF
:104A60000220FCF73FFA234800242349026842F45D
:104A70004042026002680A6842F001020A60096866
:104A800001F001011B9101688904FCD5FCF754FA7F
:104A9000FCF738F9194905220B6802200825C603DE
:104AA000012723F018030B60099060218DE8C400F2
:104AB000CDE90A02CDE90C10CDE910540E900F900B
:104AC00068461294FDF774F808B1FBF7DAFF13AAF1
:104AD0003F20032182E833000121179413A8189482
:104AE00019941A94FCF79AFE002801D0FBF7C9FF2D
:104AF0001DB0F0BD184802582C04005870440258EC
:104B0000214A30B5214914680020204B44F4700438
:104B1000146010330A681E4D42F001020A601860EA
:104B20000A681A4B2A400A6018331C1D251D174AB3
:104B3000186028322060131D28601C1D251D106080
:104B40002A1D1860131D20601C1D2860251D106083
:104B50001860206028600A680C4B0E4C22F48022FA
:104B600060330A60186020686FF30F00B0F1005FD7
:104B700003D209490120C1F808014FF00060024941
:104B80008039086030BD000088ED00E00044025824
:104B90007FEDF6EA0010005C008000512DE9F0473F
:104BA000274B4FF0804A274D02689842264E274FE8
:104BB000274C09D0504507D0A84205D0B04203D0B9
:104BC000B84201D0A04205D1D1F804C022F0700251
:104BD0004CEA0202DFF87CC0DFF87C809842DFF804
:104BE0007C900FD050450DD0A8420BD0B04209D0D8
:104BF000B84207D0A04205D0604503D0404501D05F
:104C0000484503D1CD6822F440722A434D6922F011
:104C100080022A43026098428A68C2620A688262FD
:104C200007D0A04205D0604503D0404501D048459B
:104C300001D10969016301214161BDE8F0870000EC
:104C4000000001400004004000080040000C00404B
:104C50000004014000400140004401400048014080
:104C600010B5046A042301F01F018B409C430462C9
:104C70008A40016A1143016210BD00002DE9F04F26
:104C8000026ADFF88880DFF8889022F00102DFF8FE
:104C900084A0DFF884B0214F0262DFF884C0066A86
:104CA0004268836926F002060D68B8428C6803EA00
:104CB0000C0323F0030344EA060445EA030507D086
:104CC000404505D0484503D0504501D0584505D151
:104CD000CB6824F00804234323F00404B84207D02F
:104CE000404505D0484503D0504501D0584505D131
:104CF00022F44076D1E9053233431A43426085619C
:104D0000496841630462BDE8F08F0000000401407F
:104D100000400140004401400048014000000140C3
:104D20008FFFFEFFF0B5026A1E4E1F4C22F01002EC
:104D3000DFF878E00262056A4368826925F02005A1
:104D4000D1F808C0A0420F6802EA060222F44072BD
:104D500045EA0C1542EA072201D0704506D1CE681B
:104D600025F0800545EA061525F04005A0420AD049
:104D7000704508D00E4CA04205D00E4CA04202D087
:104D80000D4CA04207D1D1E9054623F4406343EA24
:104D9000840343EA86034360826149688163056254
:104DA000F0BD0000FF8FFFFE000001400004014045
:104DB000004001400044014000480140F0B5026A53
:104DC0001C4D1D4E22F48072A8420262026A4368A2
:104DD000C76922F40072D1F808C00C6827F0730785
:104DE00042EA0C2244EA070401D0B04206D1CF685F
:104DF00022F4006242EA072222F48062A8420AD02A
:104E0000B04208D00D4DA84205D00D4DA84202D0A9
:104E10000C4DA84207D1D1E9055623F4405343EA8B
:104E2000051343EA06134360C4614968C163026223
:104E3000F0BD0000000001400004014000400140BE
:104E4000004401400048014070B5026A144B22F44E
:104E5000805202629842036A4268C46923F4005394
:104E60008E680D6824F4E64443EA063344EA0524D8
:104E70000BD00C4DA84208D00B4DA84205D00B4DCD
:104E8000A84202D00A4DA84204D14D6922F48042C2
:104E900042EA85124260C46149680164036270BDE0
:104EA0000000014000040140004001400044014076
:104EB00000480140F0B5026A22F480320262134FCA
:104EC000056A4268446D25F400350E89B8420B68C6
:104ED00024F0700445EA064543EA04030BD00C4C69
:104EE000A04208D00B4CA04205D00B4CA04202D0EF
:104EF0000A4CA04204D14C6922F4803242EA0422D6
:104F000042604365496881650562F0BD000001406B
:104F100000040140004001400044014000480140BD
:104F2000F0B5026A22F480120262134F046A4268EA
:104F3000436D24F400140E89B8420D6823F4E04355
:104F400044EA065443EA05230BD00C4DA84208D08E
:104F50000B4DA84205D00B4DA84202D00A4DA842E5
:104F600004D14D6922F4003242EA85224260436551
:104F70004968C1650462F0BD0000014000040140C1
:104F8000004001400044014000480140FEE709079D
:104F900000284FEA116104DB00F1E02080F80014E2
:104FA000704700F00F0000F1E02080F8141D7047FA
:104FB00030380A2801D20120704700207047FBF7E3
:104FC000A7BE000010B5034800240421FDF760FFD0
:104FD000204610BD9C0600242DE9F341174D4FF4E7
:104FE00000640022884621462846FBF77EFEA60084
:104FF000284600223146FBF778FE1148642301223F
:105000006946FDF7EFFB0122074631462846FBF7CC
:105010006CFE0B4801224FF4FA734146FDF7CEFABD
:10502000C619214601222846FBF75FFE002E03DD4C
:105030004FF0FF30BDE8FC810020FBE70010025874
:10504000140600242DE9F0410F4E4FF400650022B4
:105050000C46074629463046FBF747FEA2B20B48EE
:105060004FF4FA733946FDF7A9FA0122044629469E
:105070003046FBF73AFE002C03DD4FF0FF30BDE871
:10508000F0810020FBE70000001002581406002405
:105090002DE9F0410E4E4FF4006500220C46074604
:1050A00029463046FBF721FEA2B20A48642339465E
:1050B000FDF798FB0122044629463046FBF715FE12
:1050C000002C03DD4FF0FF30BDE8F0810020FBE74E
:1050D00000100258140600242DE9F743194E4FF42E
:1050E000006815468946002241463046FBF7FDFD23
:1050F0004FF40057304600223946FBF7F6FD1248C0
:10510000642301226946FDF76DFB012204463946FE
:105110003046FBF7EAFD3DB1AAB20B484FF4FA73F3
:105120004946FDF75FFB0444414601223046FBF748
:10513000DCFD002C03DD4FF0FF30BDE8FE830020D6
:10514000FBE7000000100258140600248EB0FEF7A2
:105150006FFAFBF751FCFBF7E9FDFFF777FCFEF771
:10516000A3FAFEF7FBFAFEF785FBFEF7B3FBFEF7AB
:1051700041F9102502AC4FF4FA761A4800220CAF20
:1051800007A9FCF7C7FF174800223946FCF79EFF26
:105190009DF81E009DF81D309DF81C20C00701D011
:1051A00011A100E014A102A8FBF748F91023A022E6
:1051B0003A210420CDE90054FEF7F2F8FBF7A8FDF0
:1051C00011A1024602A8FBF739F91023A0224A21B7
:1051D0000420CDE90054FEF7E3F803203146FEF742
:1051E0000FFACAE7F005002454696D653A202530AE
:1051F00032643A253032640054696D653A202530B6
:1052000032642025303264005469636B3A2025648F
:10521000206D730030B444680369A44630BC18465E
:10522000604730B4D0E90343A44630BC1846604719
:1052300030B484680369A44630BC1846604730B473
:10524000046905682046AC4630BC60474FF04070AA
:10525000E1EE100A704700000000000000000000AE
:105260000000000000003F400000000000000000BF
:105270003000400030004000000009000BC03D003D
:105280000BC03D00090018C024407FE0224031805F
:105290000000180024C01B000D80324001800380F4
:1052A0001C4027401C8007400040100060000000A8
:1052B0000000000000000000000000001F802040EF
:1052C00040200000402020401F8000000000090016
:1052D00006001F80060009000000040004003F8053
:1052E0000400040000000010006000000000000046
:1052F000000004000400040004000400000000009A
:1053000000400000000000000000002001C0060076
:105310003800400000001F802040204020401F80B7
:105320000000000010403FC000400000000018C016
:10533000214022402440184000001080204024409A
:1053400024401B80000002000D0011003FC00140FE
:1053500000003C80244024402440238000001F8023
:10536000244024403440038000003000200027C047
:105370003800200000001B802440244024401B8073
:1053800000001C0022C0224022401F8000000000BC
:105390000000084000000000000000000000046061
:1053A000000000000000000004000A00110020803E
:1053B0004040090009000900090009000000000040
:1053C0004040208011000A00040018002000234003
:1053D0002400180000001F802040274029401F4063
:1053E0000000004007C039000F0001C0004020400D
:1053F0003FC0244024401B8000001F8020402040EC
:1054000020403080000020403FC0204020401F80CE
:10541000000020403FC024402E4030C0000020400B
:105420003FC024402E00300000000F0010802040BC
:1054300022403380020020403FC0040004003FC0EF
:105440002040204020403FC020402040000000601D
:10545000202020203FC02000200020403FC02440CA
:105460000B0030C0204020403FC0204000400040A2
:1054700000C03FC03C0003C03C003FC000002040D3
:105480003FC00C4023003FC020001F802040204030
:1054900020401F80000020403FC02440240018000E
:1054A00000001F802140214020E01FA0000020407C
:1054B0003FC02440260019C0004018C024402440AA
:1054C000224031800000300020403FC020403000AA
:1054D000000020003F80004000403F80200020006E
:1054E0003E0001C0070038002000380007C03C0023
:1054F00007C038000000204039C0060039C02040F5
:1055000000002000384007C0384020000000304034
:1055100021C02640384020C00000000000007FE08D
:10552000402040200000000070000C00038000407C
:1055300000000000402040207FE00000000000004C
:1055400020004000200000000000001000100010AB
:1055500000100010001000000000400000000000DB
:105560000000000002800540054003C0004020000C
:105570003FC004400440038000000000038004405A
:1055800004400640000000000380044024403FC067
:10559000004000000380054005400340000000007B
:1055A00004401FC0244024402000000002E00550B9
:1055B00005500650042020403FC00440040003C0B2
:1055C00000400000044027C0004000000000001020
:1055D0000010041027E00000000020403FC0014000
:1055E000070004C00440204020403FC0004000406D
:1055F000000007C0040007C0040003C0000004400E
:1056000007C00440040003C00040000003800440C1
:10561000044003800000041007F00450044003809D
:105620000000000003800440045007F00010044014
:1056300007C00240040004000000000006400540CE
:10564000054004C00000000004001F80044000402A
:105650000000040007800040044007C00040040030
:10566000070004C0018006000400060001C0070016
:1056700001C006000000044006C0010006C004404E
:1056800000000410071004E0018006000400000080
:10569000044005C006400440000000000000040073
:1056A0007BE040200000000000000000FFF0000050
:1056B0000000000040207BE00400000000004000EB
:1056C000800040002000200040000000000000009A
:1056D00000000000000000000000000000000000CA
:1056E0001FCC000C0000000000000000080030008B
:1056F00060000800300060000000022003FC1E2053
:10570000022003FC1E200220000000000E181104DD
:105710003FFF10840C78000000000F0010840F3849
:1057200000C0077818840078000000780F8410C447
:1057300011240E9800E4008400080800680070003E
:105740000000000000000000000000000000000059
:1057500007E0181820044002000000004002200466
:10576000181807E00000000000000240024001801D
:105770000FF00180024002400000008000800080A5
:105780000FF800800080008000000001000D000E76
:105790000000000000000000000000000080008009
:1057A000008000800080008000800000000C000C61
:1057B00000000000000000000000000000060018CB
:1057C00000600180060018002000000007F00808B3
:1057D00010041004080807F0000000000804080482
:1057E0001FFC000400040000000000000E0C101458
:1057F0001024104411840E0C000000000C1810043A
:105800001104110412880C700000000000E0032055
:10581000042408241FFC0024000000001F981084AA
:1058200011041104108810700000000007F00888AF
:105830001104110418880070000000001C00100002
:1058400010FC13001C001000000000000E38114472
:105850001084108411440E38000000000700088CEA
:1058600010441044088807F0000000000000000009
:10587000030C030C00000000000000000000000109
:105880000106000000000000000000000080014050
:105890000220041008081004000002200220022048
:1058A000022002200220022000000000100408084C
:1058B0000410022001400080000000000E001200D1
:1058C000100C106C10800F00000003E00C1813E4A3
:1058D000142417C4082807D000000004003C03C4A7
:1058E0001C40074000E4001C000410041FFC1104CD
:1058F000110411040E880070000003E00C1810045D
:105900001004100410081C10000010041FFC1004E8
:1059100010041004080807F0000010041FFC110414
:10592000110417C410040818000010041FFC11040F
:10593000110017C010000800000003E00C1810044C
:10594000100410441C780040000010041FFC108458
:105950000080008010841FFC10040000100410045C
:105960001FFC1004100400000000000300011001DF
:1059700010011FFE10001000000010041FFC110495
:1059800003801464181C1004000010041FFC100491
:10599000000400040004000C000010041FFC1F00A1
:1059A00000FC1F001FFC1004000010041FFC0C046E
:1059B000030000E010181FFC100007F00808100496
:1059C00010041004080807F0000010041FFC1084E5
:1059D0001080108010800F00000007F008181024BD
:1059E0001024101C080A07F2000010041FFC110408
:1059F000110011C011300E0C000400000E1C110427
:105A00001084108410441C3800001800100010048A
:105A10001FFC100410001800000010001FF81004F4
:105A20000004000410041FF8100010001E0011E014
:105A3000001C007013801C0010001FC0103C00E010
:105A40001F0000E0103C1FC000001004180C1634AA
:105A500001C001C01634180C100410001C001304FF
:105A600000FC13041C00100000000804101C10644B
:105A7000108413041C041018000000000000000033
:105A80007FFE4002400240020000000030000C0097
:105A900003800060001C0003000000004002400280
:105AA00040027FFE00000000000000000000200017
:105AB0004000400040002000000000010001000103
:105AC0000001000100010001000100004000400051
:105AD00020000000000000000000000000980124E9
